{
  "contractName": "ArtAuction",
  "abi": [
    {
      "inputs": [],
      "stateMutability": "nonpayable",
      "type": "constructor"
    },
    {
      "anonymous": false,
      "inputs": [
        {
          "indexed": true,
          "internalType": "address",
          "name": "owner",
          "type": "address"
        },
        {
          "indexed": true,
          "internalType": "address",
          "name": "approved",
          "type": "address"
        },
        {
          "indexed": true,
          "internalType": "uint256",
          "name": "tokenId",
          "type": "uint256"
        }
      ],
      "name": "Approval",
      "type": "event"
    },
    {
      "anonymous": false,
      "inputs": [
        {
          "indexed": true,
          "internalType": "address",
          "name": "owner",
          "type": "address"
        },
        {
          "indexed": true,
          "internalType": "address",
          "name": "operator",
          "type": "address"
        },
        {
          "indexed": false,
          "internalType": "bool",
          "name": "approved",
          "type": "bool"
        }
      ],
      "name": "ApprovalForAll",
      "type": "event"
    },
    {
      "anonymous": false,
      "inputs": [
        {
          "indexed": false,
          "internalType": "address",
          "name": "bidder",
          "type": "address"
        },
        {
          "indexed": false,
          "internalType": "uint256",
          "name": "bid",
          "type": "uint256"
        },
        {
          "indexed": false,
          "internalType": "address",
          "name": "highestBidder",
          "type": "address"
        },
        {
          "indexed": false,
          "internalType": "uint256",
          "name": "highestBid",
          "type": "uint256"
        },
        {
          "indexed": false,
          "internalType": "uint256",
          "name": "highestBindingBid",
          "type": "uint256"
        }
      ],
      "name": "LogBid",
      "type": "event"
    },
    {
      "anonymous": false,
      "inputs": [],
      "name": "LogCanceled",
      "type": "event"
    },
    {
      "anonymous": false,
      "inputs": [
        {
          "indexed": false,
          "internalType": "address",
          "name": "withdrawer",
          "type": "address"
        },
        {
          "indexed": false,
          "internalType": "address",
          "name": "withdrawalAccount",
          "type": "address"
        },
        {
          "indexed": false,
          "internalType": "uint256",
          "name": "amount",
          "type": "uint256"
        }
      ],
      "name": "LogWithdrawal",
      "type": "event"
    },
    {
      "anonymous": false,
      "inputs": [
        {
          "indexed": true,
          "internalType": "address",
          "name": "from",
          "type": "address"
        },
        {
          "indexed": true,
          "internalType": "address",
          "name": "to",
          "type": "address"
        },
        {
          "indexed": true,
          "internalType": "uint256",
          "name": "tokenId",
          "type": "uint256"
        }
      ],
      "name": "Transfer",
      "type": "event"
    },
    {
      "inputs": [],
      "name": "_artItemIds",
      "outputs": [
        {
          "internalType": "uint256",
          "name": "",
          "type": "uint256"
        }
      ],
      "stateMutability": "view",
      "type": "function"
    },
    {
      "inputs": [],
      "name": "_tokenIds",
      "outputs": [
        {
          "internalType": "uint256",
          "name": "",
          "type": "uint256"
        }
      ],
      "stateMutability": "view",
      "type": "function"
    },
    {
      "inputs": [
        {
          "internalType": "address",
          "name": "to",
          "type": "address"
        },
        {
          "internalType": "uint256",
          "name": "tokenId",
          "type": "uint256"
        }
      ],
      "name": "approve",
      "outputs": [],
      "stateMutability": "nonpayable",
      "type": "function"
    },
    {
      "inputs": [
        {
          "internalType": "address",
          "name": "owner",
          "type": "address"
        }
      ],
      "name": "balanceOf",
      "outputs": [
        {
          "internalType": "uint256",
          "name": "",
          "type": "uint256"
        }
      ],
      "stateMutability": "view",
      "type": "function"
    },
    {
      "inputs": [],
      "name": "baseURI",
      "outputs": [
        {
          "internalType": "string",
          "name": "",
          "type": "string"
        }
      ],
      "stateMutability": "view",
      "type": "function"
    },
    {
      "inputs": [
        {
          "internalType": "uint256",
          "name": "",
          "type": "uint256"
        }
      ],
      "name": "bid",
      "outputs": [
        {
          "internalType": "uint256",
          "name": "highestBindingBid",
          "type": "uint256"
        },
        {
          "internalType": "address payable",
          "name": "highestBidder",
          "type": "address"
        }
      ],
      "stateMutability": "view",
      "type": "function"
    },
    {
      "inputs": [
        {
          "internalType": "uint256",
          "name": "",
          "type": "uint256"
        },
        {
          "internalType": "address",
          "name": "",
          "type": "address"
        }
      ],
      "name": "fundsByBidder",
      "outputs": [
        {
          "internalType": "uint256",
          "name": "",
          "type": "uint256"
        }
      ],
      "stateMutability": "view",
      "type": "function"
    },
    {
      "inputs": [
        {
          "internalType": "uint256",
          "name": "tokenId",
          "type": "uint256"
        }
      ],
      "name": "getApproved",
      "outputs": [
        {
          "internalType": "address",
          "name": "",
          "type": "address"
        }
      ],
      "stateMutability": "view",
      "type": "function"
    },
    {
      "inputs": [
        {
          "internalType": "address",
          "name": "owner",
          "type": "address"
        },
        {
          "internalType": "address",
          "name": "operator",
          "type": "address"
        }
      ],
      "name": "isApprovedForAll",
      "outputs": [
        {
          "internalType": "bool",
          "name": "",
          "type": "bool"
        }
      ],
      "stateMutability": "view",
      "type": "function"
    },
    {
      "inputs": [],
      "name": "name",
      "outputs": [
        {
          "internalType": "string",
          "name": "",
          "type": "string"
        }
      ],
      "stateMutability": "view",
      "type": "function"
    },
    {
      "inputs": [],
      "name": "owner",
      "outputs": [
        {
          "internalType": "address",
          "name": "",
          "type": "address"
        }
      ],
      "stateMutability": "view",
      "type": "function"
    },
    {
      "inputs": [
        {
          "internalType": "uint256",
          "name": "tokenId",
          "type": "uint256"
        }
      ],
      "name": "ownerOf",
      "outputs": [
        {
          "internalType": "address",
          "name": "",
          "type": "address"
        }
      ],
      "stateMutability": "view",
      "type": "function"
    },
    {
      "inputs": [
        {
          "internalType": "address",
          "name": "from",
          "type": "address"
        },
        {
          "internalType": "address",
          "name": "to",
          "type": "address"
        },
        {
          "internalType": "uint256",
          "name": "tokenId",
          "type": "uint256"
        }
      ],
      "name": "safeTransferFrom",
      "outputs": [],
      "stateMutability": "nonpayable",
      "type": "function"
    },
    {
      "inputs": [
        {
          "internalType": "address",
          "name": "from",
          "type": "address"
        },
        {
          "internalType": "address",
          "name": "to",
          "type": "address"
        },
        {
          "internalType": "uint256",
          "name": "tokenId",
          "type": "uint256"
        },
        {
          "internalType": "bytes",
          "name": "_data",
          "type": "bytes"
        }
      ],
      "name": "safeTransferFrom",
      "outputs": [],
      "stateMutability": "nonpayable",
      "type": "function"
    },
    {
      "inputs": [
        {
          "internalType": "address",
          "name": "operator",
          "type": "address"
        },
        {
          "internalType": "bool",
          "name": "approved",
          "type": "bool"
        }
      ],
      "name": "setApprovalForAll",
      "outputs": [],
      "stateMutability": "nonpayable",
      "type": "function"
    },
    {
      "inputs": [
        {
          "internalType": "bytes4",
          "name": "interfaceId",
          "type": "bytes4"
        }
      ],
      "name": "supportsInterface",
      "outputs": [
        {
          "internalType": "bool",
          "name": "",
          "type": "bool"
        }
      ],
      "stateMutability": "view",
      "type": "function"
    },
    {
      "inputs": [],
      "name": "symbol",
      "outputs": [
        {
          "internalType": "string",
          "name": "",
          "type": "string"
        }
      ],
      "stateMutability": "view",
      "type": "function"
    },
    {
      "inputs": [
        {
          "internalType": "uint256",
          "name": "index",
          "type": "uint256"
        }
      ],
      "name": "tokenByIndex",
      "outputs": [
        {
          "internalType": "uint256",
          "name": "",
          "type": "uint256"
        }
      ],
      "stateMutability": "view",
      "type": "function"
    },
    {
      "inputs": [
        {
          "internalType": "address",
          "name": "owner",
          "type": "address"
        },
        {
          "internalType": "uint256",
          "name": "index",
          "type": "uint256"
        }
      ],
      "name": "tokenOfOwnerByIndex",
      "outputs": [
        {
          "internalType": "uint256",
          "name": "",
          "type": "uint256"
        }
      ],
      "stateMutability": "view",
      "type": "function"
    },
    {
      "inputs": [
        {
          "internalType": "uint256",
          "name": "tokenId",
          "type": "uint256"
        }
      ],
      "name": "tokenURI",
      "outputs": [
        {
          "internalType": "string",
          "name": "",
          "type": "string"
        }
      ],
      "stateMutability": "view",
      "type": "function"
    },
    {
      "inputs": [],
      "name": "totalSupply",
      "outputs": [
        {
          "internalType": "uint256",
          "name": "",
          "type": "uint256"
        }
      ],
      "stateMutability": "view",
      "type": "function"
    },
    {
      "inputs": [
        {
          "internalType": "address",
          "name": "from",
          "type": "address"
        },
        {
          "internalType": "address",
          "name": "to",
          "type": "address"
        },
        {
          "internalType": "uint256",
          "name": "tokenId",
          "type": "uint256"
        }
      ],
      "name": "transferFrom",
      "outputs": [],
      "stateMutability": "nonpayable",
      "type": "function"
    },
    {
      "inputs": [
        {
          "internalType": "uint256",
          "name": "price",
          "type": "uint256"
        },
        {
          "internalType": "string",
          "name": "tokenURI",
          "type": "string"
        },
        {
          "internalType": "uint256",
          "name": "_bidincrement",
          "type": "uint256"
        },
        {
          "internalType": "uint256",
          "name": "timePeriod",
          "type": "uint256"
        }
      ],
      "name": "addArtItem",
      "outputs": [],
      "stateMutability": "nonpayable",
      "type": "function"
    },
    {
      "inputs": [
        {
          "internalType": "uint256",
          "name": "id",
          "type": "uint256"
        }
      ],
      "name": "getArtItem",
      "outputs": [
        {
          "internalType": "uint256",
          "name": "",
          "type": "uint256"
        },
        {
          "internalType": "uint256",
          "name": "",
          "type": "uint256"
        },
        {
          "internalType": "string",
          "name": "",
          "type": "string"
        },
        {
          "internalType": "uint256",
          "name": "",
          "type": "uint256"
        },
        {
          "internalType": "uint256",
          "name": "",
          "type": "uint256"
        },
        {
          "internalType": "uint256",
          "name": "",
          "type": "uint256"
        },
        {
          "internalType": "bool",
          "name": "",
          "type": "bool"
        }
      ],
      "stateMutability": "view",
      "type": "function"
    },
    {
      "inputs": [
        {
          "internalType": "uint256",
          "name": "id",
          "type": "uint256"
        }
      ],
      "name": "cancelAuction",
      "outputs": [
        {
          "internalType": "bool",
          "name": "success",
          "type": "bool"
        }
      ],
      "stateMutability": "payable",
      "type": "function"
    },
    {
      "inputs": [
        {
          "internalType": "uint256",
          "name": "id",
          "type": "uint256"
        }
      ],
      "name": "placeBid",
      "outputs": [
        {
          "internalType": "bool",
          "name": "success",
          "type": "bool"
        }
      ],
      "stateMutability": "payable",
      "type": "function"
    },
    {
      "inputs": [
        {
          "internalType": "uint256",
          "name": "id",
          "type": "uint256"
        }
      ],
      "name": "withdraw",
      "outputs": [
        {
          "internalType": "bool",
          "name": "success",
          "type": "bool"
        }
      ],
      "stateMutability": "payable",
      "type": "function"
    }
  ],
  "bytecode": "0x60806040526000601160006101000a81548160ff0219169083151502179055503480156200002c57600080fd5b506040518060400160405280600481526020017f44415254000000000000000000000000000000000000000000000000000000008152506040518060400160405280600381526020017f4152540000000000000000000000000000000000000000000000000000000000815250620000b16301ffc9a760e01b6200017460201b60201c565b8160069080519060200190620000c99291906200027d565b508060079080519060200190620000e29291906200027d565b50620000fb6380ac58cd60e01b6200017460201b60201c565b62000113635b5e139f60e01b6200017460201b60201c565b6200012b63780e9d6360e01b6200017460201b60201c565b505033600b60006101000a81548173ffffffffffffffffffffffffffffffffffffffff021916908373ffffffffffffffffffffffffffffffffffffffff1602179055506200032c565b63ffffffff60e01b817bffffffffffffffffffffffffffffffffffffffffffffffffffffffff1916141562000211576040517f08c379a000000000000000000000000000000000000000000000000000000000815260040180806020018281038252601c8152602001807f4552433136353a20696e76616c696420696e746572666163652069640000000081525060200191505060405180910390fd5b6001600080837bffffffffffffffffffffffffffffffffffffffffffffffffffffffff19167bffffffffffffffffffffffffffffffffffffffffffffffffffffffff1916815260200190815260200160002060006101000a81548160ff02191690831515021790555050565b828054600181600116156101000203166002900490600052602060002090601f016020900481019282601f10620002c057805160ff1916838001178555620002f1565b82800160010185558215620002f1579182015b82811115620002f0578251825591602001919060010190620002d3565b5b50905062000300919062000304565b5090565b6200032991905b80821115620003255760008160009055506001016200030b565b5090565b90565b6146bc806200033c6000396000f3fe60806040526004361061019c5760003560e01c80634f6ccce7116100ec57806396b5a7551161008a578063aa46a40011610064578063aa46a40014610bc2578063b88d4fde14610bed578063c87b56dd14610cff578063e985e9c514610db35761019c565b806396b5a75514610ad95780639979ef4514610b1f578063a22cb46514610b655761019c565b806370a08231116100c657806370a08231146108a75780638da5cb5b1461090c57806395cb4eee1461096357806395d89b4114610a495761019c565b80634f6ccce71461074d5780636352211e1461079c5780636c0360eb146108175761019c565b806321f004eb116101595780632e1a7d4d116101335780632e1a7d4d1461059b5780632f745c59146105e157806342842e0e14610650578063454a2ab3146106cb5761019c565b806321f004eb146103cf57806323b872dd146104b157806326fe30651461052c5761019c565b806301ffc9a7146101a157806306fdde0314610213578063081812fc146102a3578063095ea7b31461031e57806314797de71461037957806318160ddd146103a4575b600080fd5b3480156101ad57600080fd5b506101f9600480360360208110156101c457600080fd5b8101908080357bffffffffffffffffffffffffffffffffffffffffffffffffffffffff19169060200190929190505050610e3c565b604051808215151515815260200191505060405180910390f35b34801561021f57600080fd5b50610228610ea3565b6040518080602001828103825283818151815260200191508051906020019080838360005b8381101561026857808201518184015260208101905061024d565b50505050905090810190601f1680156102955780820380516001836020036101000a031916815260200191505b509250505060405180910390f35b3480156102af57600080fd5b506102dc600480360360208110156102c657600080fd5b8101908080359060200190929190505050610f45565b604051808273ffffffffffffffffffffffffffffffffffffffff1673ffffffffffffffffffffffffffffffffffffffff16815260200191505060405180910390f35b34801561032a57600080fd5b506103776004803603604081101561034157600080fd5b81019080803573ffffffffffffffffffffffffffffffffffffffff16906020019092919080359060200190929190505050610fe0565b005b34801561038557600080fd5b5061038e611124565b6040518082815260200191505060405180910390f35b3480156103b057600080fd5b506103b961112a565b6040518082815260200191505060405180910390f35b3480156103db57600080fd5b50610408600480360360208110156103f257600080fd5b810190808035906020019092919050505061113b565b604051808881526020018781526020018060200186815260200185815260200184815260200183151515158152602001828103825287818151815260200191508051906020019080838360005b83811015610470578082015181840152602081019050610455565b50505050905090810190601f16801561049d5780820380516001836020036101000a031916815260200191505b509850505050505050505060405180910390f35b3480156104bd57600080fd5b5061052a600480360360608110156104d457600080fd5b81019080803573ffffffffffffffffffffffffffffffffffffffff169060200190929190803573ffffffffffffffffffffffffffffffffffffffff1690602001909291908035906020019092919050505061143d565b005b34801561053857600080fd5b506105856004803603604081101561054f57600080fd5b8101908080359060200190929190803573ffffffffffffffffffffffffffffffffffffffff1690602001909291905050506114b3565b6040518082815260200191505060405180910390f35b6105c7600480360360208110156105b157600080fd5b81019080803590602001909291905050506114d8565b604051808215151515815260200191505060405180910390f35b3480156105ed57600080fd5b5061063a6004803603604081101561060457600080fd5b81019080803573ffffffffffffffffffffffffffffffffffffffff169060200190929190803590602001909291905050506119dd565b6040518082815260200191505060405180910390f35b34801561065c57600080fd5b506106c96004803603606081101561067357600080fd5b81019080803573ffffffffffffffffffffffffffffffffffffffff169060200190929190803573ffffffffffffffffffffffffffffffffffffffff16906020019092919080359060200190929190505050611a38565b005b3480156106d757600080fd5b50610704600480360360208110156106ee57600080fd5b8101908080359060200190929190505050611a58565b604051808381526020018273ffffffffffffffffffffffffffffffffffffffff1673ffffffffffffffffffffffffffffffffffffffff1681526020019250505060405180910390f35b34801561075957600080fd5b506107866004803603602081101561077057600080fd5b8101908080359060200190929190505050611a9c565b6040518082815260200191505060405180910390f35b3480156107a857600080fd5b506107d5600480360360208110156107bf57600080fd5b8101908080359060200190929190505050611abf565b604051808273ffffffffffffffffffffffffffffffffffffffff1673ffffffffffffffffffffffffffffffffffffffff16815260200191505060405180910390f35b34801561082357600080fd5b5061082c611af6565b6040518080602001828103825283818151815260200191508051906020019080838360005b8381101561086c578082015181840152602081019050610851565b50505050905090810190601f1680156108995780820380516001836020036101000a031916815260200191505b509250505060405180910390f35b3480156108b357600080fd5b506108f6600480360360208110156108ca57600080fd5b81019080803573ffffffffffffffffffffffffffffffffffffffff169060200190929190505050611b98565b6040518082815260200191505060405180910390f35b34801561091857600080fd5b50610921611c6d565b604051808273ffffffffffffffffffffffffffffffffffffffff1673ffffffffffffffffffffffffffffffffffffffff16815260200191505060405180910390f35b34801561096f57600080fd5b50610a476004803603608081101561098657600080fd5b8101908080359060200190929190803590602001906401000000008111156109ad57600080fd5b8201836020820111156109bf57600080fd5b803590602001918460018302840111640100000000831117156109e157600080fd5b91908080601f016020809104026020016040519081016040528093929190818152602001838380828437600081840152601f19601f8201169050808301925050505050505091929192908035906020019092919080359060200190929190505050611c93565b005b348015610a5557600080fd5b50610a5e611e86565b6040518080602001828103825283818151815260200191508051906020019080838360005b83811015610a9e578082015181840152602081019050610a83565b50505050905090810190601f168015610acb5780820380516001836020036101000a031916815260200191505b509250505060405180910390f35b610b0560048036036020811015610aef57600080fd5b8101908080359060200190929190505050611f28565b604051808215151515815260200191505060405180910390f35b610b4b60048036036020811015610b3557600080fd5b8101908080359060200190929190505050612193565b604051808215151515815260200191505060405180910390f35b348015610b7157600080fd5b50610bc060048036036040811015610b8857600080fd5b81019080803573ffffffffffffffffffffffffffffffffffffffff16906020019092919080351515906020019092919050505061292c565b005b348015610bce57600080fd5b50610bd7612ae4565b6040518082815260200191505060405180910390f35b348015610bf957600080fd5b50610cfd60048036036080811015610c1057600080fd5b81019080803573ffffffffffffffffffffffffffffffffffffffff169060200190929190803573ffffffffffffffffffffffffffffffffffffffff1690602001909291908035906020019092919080359060200190640100000000811115610c7757600080fd5b820183602082011115610c8957600080fd5b80359060200191846001830284011164010000000083111715610cab57600080fd5b91908080601f016020809104026020016040519081016040528093929190818152602001838380828437600081840152601f19601f820116905080830192505050505050509192919290505050612aea565b005b348015610d0b57600080fd5b50610d3860048036036020811015610d2257600080fd5b8101908080359060200190929190505050612b62565b6040518080602001828103825283818151815260200191508051906020019080838360005b83811015610d78578082015181840152602081019050610d5d565b50505050905090810190601f168015610da55780820380516001836020036101000a031916815260200191505b509250505060405180910390f35b348015610dbf57600080fd5b50610e2260048036036040811015610dd657600080fd5b81019080803573ffffffffffffffffffffffffffffffffffffffff169060200190929190803573ffffffffffffffffffffffffffffffffffffffff169060200190929190505050612e4b565b604051808215151515815260200191505060405180910390f35b6000806000837bffffffffffffffffffffffffffffffffffffffffffffffffffffffff19167bffffffffffffffffffffffffffffffffffffffffffffffffffffffff1916815260200190815260200160002060009054906101000a900460ff169050919050565b606060068054600181600116156101000203166002900480601f016020809104026020016040519081016040528092919081815260200182805460018160011615610100020316600290048015610f3b5780601f10610f1057610100808354040283529160200191610f3b565b820191906000526020600020905b815481529060010190602001808311610f1e57829003601f168201915b5050505050905090565b6000610f5082612edf565b610fa5576040517f08c379a000000000000000000000000000000000000000000000000000000000815260040180806020018281038252602c815260200180614585602c913960400191505060405180910390fd5b6004600083815260200190815260200160002060009054906101000a900473ffffffffffffffffffffffffffffffffffffffff169050919050565b6000610feb82611abf565b90508073ffffffffffffffffffffffffffffffffffffffff168373ffffffffffffffffffffffffffffffffffffffff161415611072576040517f08c379a00000000000000000000000000000000000000000000000000000000081526004018080602001828103825260218152602001806146356021913960400191505060405180910390fd5b8073ffffffffffffffffffffffffffffffffffffffff16611091612efc565b73ffffffffffffffffffffffffffffffffffffffff1614806110c057506110bf816110ba612efc565b612e4b565b5b611115576040517f08c379a00000000000000000000000000000000000000000000000000000000081526004018080602001828103825260388152602001806144d86038913960400191505060405180910390fd5b61111f8383612f04565b505050565b600d5481565b60006111366002612fbd565b905090565b600080606060008060008087600a600082815260200190815260200160002060030160009054906101000a900460ff166111dd576040517f08c379a00000000000000000000000000000000000000000000000000000000081526004018080602001828103825260098152602001807f4e6f7420466f756e64000000000000000000000000000000000000000000000081525060200191505060405180910390fd5b6111e5614250565b600a60008b8152602001908152602001600020604051806101200160405290816000820160009054906101000a900473ffffffffffffffffffffffffffffffffffffffff1673ffffffffffffffffffffffffffffffffffffffff1673ffffffffffffffffffffffffffffffffffffffff16815260200160018201548152602001600282018054600181600116156101000203166002900480601f0160208091040260200160405190810160405280929190818152602001828054600181600116156101000203166002900480156112fd5780601f106112d2576101008083540402835291602001916112fd565b820191906000526020600020905b8154815290600101906020018083116112e057829003601f168201915b505050505081526020016003820160009054906101000a900460ff161515151581526020016004820154815260200160058201548152602001600682015481526020016007820160009054906101000a900460ff161515151581526020016007820160019054906101000a900460ff161515151581525050905061137f6142b8565b601060008c8152602001908152602001600020604051806040016040529081600082015481526020016001820160009054906101000a900473ffffffffffffffffffffffffffffffffffffffff1673ffffffffffffffffffffffffffffffffffffffff1673ffffffffffffffffffffffffffffffffffffffff168152505090508a8260200151836040015183600001518560a001518660c001518760e001518494509950995099509950995099509950505050919395979092949650565b61144e611448612efc565b82612fd2565b6114a3576040517f08c379a00000000000000000000000000000000000000000000000000000000081526004018080602001828103825260318152602001806146566031913960400191505060405180910390fd5b6114ae8383836130c6565b505050565b600e602052816000526040600020602052806000526040600020600091509150505481565b6000816114e3614250565b600a6000838152602001908152602001600020604051806101200160405290816000820160009054906101000a900473ffffffffffffffffffffffffffffffffffffffff1673ffffffffffffffffffffffffffffffffffffffff1673ffffffffffffffffffffffffffffffffffffffff16815260200160018201548152602001600282018054600181600116156101000203166002900480601f0160208091040260200160405190810160405280929190818152602001828054600181600116156101000203166002900480156115fb5780601f106115d0576101008083540402835291602001916115fb565b820191906000526020600020905b8154815290600101906020018083116115de57829003601f168201915b505050505081526020016003820160009054906101000a900460ff161515151581526020016004820154815260200160058201548152602001600682015481526020016007820160009054906101000a900460ff161515151581526020016007820160019054906101000a900460ff1615151515815250509050806000015173ffffffffffffffffffffffffffffffffffffffff163373ffffffffffffffffffffffffffffffffffffffff1614156116b257600080fd5b60011515600a600086815260200190815260200160002060070160009054906101000a900460ff161515146116e657600080fd5b60011515600a600086815260200190815260200160002060070160019054906101000a900460ff1615151461171a57600080fd5b60008060006010600088815260200190815260200160002090508060010160009054906101000a900473ffffffffffffffffffffffffffffffffffffffff1673ffffffffffffffffffffffffffffffffffffffff163373ffffffffffffffffffffffffffffffffffffffff16141561182f578060010160009054906101000a900473ffffffffffffffffffffffffffffffffffffffff169250600e600088815260200190815260200160002060008260010160009054906101000a900473ffffffffffffffffffffffffffffffffffffffff1673ffffffffffffffffffffffffffffffffffffffff1673ffffffffffffffffffffffffffffffffffffffff168152602001908152602001600020549150611886565b339250600e600088815260200190815260200160002060008473ffffffffffffffffffffffffffffffffffffffff1673ffffffffffffffffffffffffffffffffffffffff1681526020019081526020016000205491505b600082141561189457600080fd5b81600e600089815260200190815260200160002060008573ffffffffffffffffffffffffffffffffffffffff1673ffffffffffffffffffffffffffffffffffffffff168152602001908152602001600020600082825403925050819055503373ffffffffffffffffffffffffffffffffffffffff166108fc839081150290604051600060405180830381858888f1935050505061193057600080fd5b7f0ec497a8ae5b1ba29c60470ef651def995fac3deebbdcc56c47a4e5f51a4c2bd338484604051808473ffffffffffffffffffffffffffffffffffffffff1673ffffffffffffffffffffffffffffffffffffffff1681526020018373ffffffffffffffffffffffffffffffffffffffff1673ffffffffffffffffffffffffffffffffffffffff168152602001828152602001935050505060405180910390a1600195505050505050919050565b6000611a3082600160008673ffffffffffffffffffffffffffffffffffffffff1673ffffffffffffffffffffffffffffffffffffffff16815260200190815260200160002061330990919063ffffffff16565b905092915050565b611a5383838360405180602001604052806000815250612aea565b505050565b60106020528060005260406000206000915090508060000154908060010160009054906101000a900473ffffffffffffffffffffffffffffffffffffffff16905082565b600080611ab383600261332390919063ffffffff16565b50905080915050919050565b6000611aef8260405180606001604052806029815260200161453a6029913960026133529092919063ffffffff16565b9050919050565b606060098054600181600116156101000203166002900480601f016020809104026020016040519081016040528092919081815260200182805460018160011615610100020316600290048015611b8e5780601f10611b6357610100808354040283529160200191611b8e565b820191906000526020600020905b815481529060010190602001808311611b7157829003601f168201915b5050505050905090565b60008073ffffffffffffffffffffffffffffffffffffffff168273ffffffffffffffffffffffffffffffffffffffff161415611c1f576040517f08c379a000000000000000000000000000000000000000000000000000000000815260040180806020018281038252602a815260200180614510602a913960400191505060405180910390fd5b611c66600160008473ffffffffffffffffffffffffffffffffffffffff1673ffffffffffffffffffffffffffffffffffffffff168152602001908152602001600020613371565b9050919050565b600b60009054906101000a900473ffffffffffffffffffffffffffffffffffffffff1681565b6000841015611d0a576040517f08c379a000000000000000000000000000000000000000000000000000000000815260040180806020018281038252601c8152602001807f50726963652063616e6e6f74206265206c65737373207468616e20300000000081525060200191505060405180910390fd5b600d600081548092919060010191905055506040518061012001604052803373ffffffffffffffffffffffffffffffffffffffff16815260200185815260200184815260200160011515815260200183815260200142815260200182815260200160001515815260200160001515815250600a6000600d54815260200190815260200160002060008201518160000160006101000a81548173ffffffffffffffffffffffffffffffffffffffff021916908373ffffffffffffffffffffffffffffffffffffffff160217905550602082015181600101556040820151816002019080519060200190611dfd9291906142e8565b5060608201518160030160006101000a81548160ff0219169083151502179055506080820151816004015560a0820151816005015560c0820151816006015560e08201518160070160006101000a81548160ff0219169083151502179055506101008201518160070160016101000a81548160ff02191690831515021790555090505050505050565b606060078054600181600116156101000203166002900480601f016020809104026020016040519081016040528092919081815260200182805460018160011615610100020316600290048015611f1e5780601f10611ef357610100808354040283529160200191611f1e565b820191906000526020600020905b815481529060010190602001808311611f0157829003601f168201915b5050505050905090565b600080600a60008481526020019081526020016000209050600015158160070160009054906101000a900460ff16151514611f6257600080fd5b426001826006015402826005015401101561214d576000601060008581526020019081526020016000209050600c60008154809291906001019190505550611fac33600c54613386565b612054600c54836002018054600181600116156101000203166002900480601f01602080910402602001604051908101604052809291908181526020018280546001816001161561010002031660029004801561204a5780601f1061201f5761010080835404028352916020019161204a565b820191906000526020600020905b81548152906001019060200180831161202d57829003601f168201915b50505050506133a4565b60018260070160006101000a81548160ff02191690831515021790555060008160000154141561208357600080fd5b8060000154600e600086815260200190815260200160002060008360010160009054906101000a900473ffffffffffffffffffffffffffffffffffffffff1673ffffffffffffffffffffffffffffffffffffffff1673ffffffffffffffffffffffffffffffffffffffff168152602001908152602001600020600082825403925050819055503373ffffffffffffffffffffffffffffffffffffffff166108fc82600001549081150290604051600060405180830381858888f1935050505061214b57600080fd5b505b7f462b6ca7f632601af1295aeb320851f50e8e630a309173f23535845ea4bfb3b960405160405180910390a18060070160009054906101000a900460ff16915050919050565b60008161219e614250565b600a6000838152602001908152602001600020604051806101200160405290816000820160009054906101000a900473ffffffffffffffffffffffffffffffffffffffff1673ffffffffffffffffffffffffffffffffffffffff1673ffffffffffffffffffffffffffffffffffffffff16815260200160018201548152602001600282018054600181600116156101000203166002900480601f0160208091040260200160405190810160405280929190818152602001828054600181600116156101000203166002900480156122b65780601f1061228b576101008083540402835291602001916122b6565b820191906000526020600020905b81548152906001019060200180831161229957829003601f168201915b505050505081526020016003820160009054906101000a900460ff161515151581526020016004820154815260200160058201548152602001600682015481526020016007820160009054906101000a900460ff161515151581526020016007820160019054906101000a900460ff1615151515815250509050806000015173ffffffffffffffffffffffffffffffffffffffff163373ffffffffffffffffffffffffffffffffffffffff16141561236d57600080fd5b83612376614250565b600a6000838152602001908152602001600020604051806101200160405290816000820160009054906101000a900473ffffffffffffffffffffffffffffffffffffffff1673ffffffffffffffffffffffffffffffffffffffff1673ffffffffffffffffffffffffffffffffffffffff16815260200160018201548152602001600282018054600181600116156101000203166002900480601f01602080910402602001604051908101604052809291908181526020018280546001816001161561010002031660029004801561248e5780601f106124635761010080835404028352916020019161248e565b820191906000526020600020905b81548152906001019060200180831161247157829003601f168201915b505050505081526020016003820160009054906101000a900460ff161515151581526020016004820154815260200160058201548152602001600682015481526020016007820160009054906101000a900460ff161515151581526020016007820160019054906101000a900460ff1615151515815250509050806020015134101561251957600080fd5b600034141561252757600080fd5b60006010600088815260200190815260200160002090506000600a60008981526020019081526020016000209050600015158160070160009054906101000a900460ff1615151461257757600080fd5b600034600e60008b815260200190815260200160002060003373ffffffffffffffffffffffffffffffffffffffff1673ffffffffffffffffffffffffffffffffffffffff16815260200190815260200160002054019050826000015481116125de57600080fd5b6000600e60008b815260200190815260200160002060008560010160009054906101000a900473ffffffffffffffffffffffffffffffffffffffff1673ffffffffffffffffffffffffffffffffffffffff1673ffffffffffffffffffffffffffffffffffffffff16815260200190815260200160002054905081600e60008c815260200190815260200160002060003373ffffffffffffffffffffffffffffffffffffffff1673ffffffffffffffffffffffffffffffffffffffff168152602001908152602001600020819055508082116126e457808360040154830111156126cf578084600001819055506126df565b8260040154820184600001819055505b6127ff565b8360010160009054906101000a900473ffffffffffffffffffffffffffffffffffffffff1673ffffffffffffffffffffffffffffffffffffffff163373ffffffffffffffffffffffffffffffffffffffff16146127fb57338460010160006101000a81548173ffffffffffffffffffffffffffffffffffffffff021916908373ffffffffffffffffffffffffffffffffffffffff160217905550808360040154830111156127ea5760001515601160009054906101000a900460ff16151514156127b6578084600001819055506127e5565b826004015483600101540184600001819055506001601160006101000a81548160ff0219169083151502179055505b6127fa565b8260040154820184600001819055505b5b8190505b600015158360070160019054906101000a900460ff1615151415612827573484600001819055505b7ff152f4ff5e488c55370a2d53925a55055228ebd8ec95bd0251bbb299e48786b033838660010160009054906101000a900473ffffffffffffffffffffffffffffffffffffffff16848860000154604051808673ffffffffffffffffffffffffffffffffffffffff1673ffffffffffffffffffffffffffffffffffffffff1681526020018581526020018473ffffffffffffffffffffffffffffffffffffffff1673ffffffffffffffffffffffffffffffffffffffff1681526020018381526020018281526020019550505050505060405180910390a160018360070160016101000a81548160ff021916908315150217905550600198505050505050505050919050565b612934612efc565b73ffffffffffffffffffffffffffffffffffffffff168273ffffffffffffffffffffffffffffffffffffffff1614156129d5576040517f08c379a00000000000000000000000000000000000000000000000000000000081526004018080602001828103825260198152602001807f4552433732313a20617070726f766520746f2063616c6c65720000000000000081525060200191505060405180910390fd5b80600560006129e2612efc565b73ffffffffffffffffffffffffffffffffffffffff1673ffffffffffffffffffffffffffffffffffffffff16815260200190815260200160002060008473ffffffffffffffffffffffffffffffffffffffff1673ffffffffffffffffffffffffffffffffffffffff16815260200190815260200160002060006101000a81548160ff0219169083151502179055508173ffffffffffffffffffffffffffffffffffffffff16612a8f612efc565b73ffffffffffffffffffffffffffffffffffffffff167f17307eab39ab6107e8899845ad3d59bd9653f200f220920489ca2b5937696c3183604051808215151515815260200191505060405180910390a35050565b600c5481565b612afb612af5612efc565b83612fd2565b612b50576040517f08c379a00000000000000000000000000000000000000000000000000000000081526004018080602001828103825260318152602001806146566031913960400191505060405180910390fd5b612b5c8484848461342e565b50505050565b6060612b6d82612edf565b612bc2576040517f08c379a000000000000000000000000000000000000000000000000000000000815260040180806020018281038252602f815260200180614606602f913960400191505060405180910390fd5b6060600860008481526020019081526020016000208054600181600116156101000203166002900480601f016020809104026020016040519081016040528092919081815260200182805460018160011615610100020316600290048015612c6b5780601f10612c4057610100808354040283529160200191612c6b565b820191906000526020600020905b815481529060010190602001808311612c4e57829003601f168201915b50505050509050600060098054600181600116156101000203166002900490501415612c9a5780915050612e46565b600081511115612d73576009816040516020018083805460018160011615610100020316600290048015612d055780601f10612ce3576101008083540402835291820191612d05565b820191906000526020600020905b815481529060010190602001808311612cf1575b505082805190602001908083835b60208310612d365780518252602082019150602081019050602083039250612d13565b6001836020036101000a03801982511681845116808217855250505050505090500192505050604051602081830303815290604052915050612e46565b6009612d7e846134a0565b6040516020018083805460018160011615610100020316600290048015612ddc5780601f10612dba576101008083540402835291820191612ddc565b820191906000526020600020905b815481529060010190602001808311612dc8575b505082805190602001908083835b60208310612e0d5780518252602082019150602081019050602083039250612dea565b6001836020036101000a038019825116818451168082178552505050505050905001925050506040516020818303038152906040529150505b919050565b6000600560008473ffffffffffffffffffffffffffffffffffffffff1673ffffffffffffffffffffffffffffffffffffffff16815260200190815260200160002060008373ffffffffffffffffffffffffffffffffffffffff1673ffffffffffffffffffffffffffffffffffffffff16815260200190815260200160002060009054906101000a900460ff16905092915050565b6000612ef58260026135d090919063ffffffff16565b9050919050565b600033905090565b816004600083815260200190815260200160002060006101000a81548173ffffffffffffffffffffffffffffffffffffffff021916908373ffffffffffffffffffffffffffffffffffffffff160217905550808273ffffffffffffffffffffffffffffffffffffffff16612f7783611abf565b73ffffffffffffffffffffffffffffffffffffffff167f8c5be1e5ebec7d5bd14f71427d1e84f3dd0314c0f7b2291e5b200ac8c7c3b92560405160405180910390a45050565b6000612fcb826000016135ea565b9050919050565b6000612fdd82612edf565b613032576040517f08c379a000000000000000000000000000000000000000000000000000000000815260040180806020018281038252602c8152602001806144ac602c913960400191505060405180910390fd5b600061303d83611abf565b90508073ffffffffffffffffffffffffffffffffffffffff168473ffffffffffffffffffffffffffffffffffffffff1614806130ac57508373ffffffffffffffffffffffffffffffffffffffff1661309484610f45565b73ffffffffffffffffffffffffffffffffffffffff16145b806130bd57506130bc8185612e4b565b5b91505092915050565b8273ffffffffffffffffffffffffffffffffffffffff166130e682611abf565b73ffffffffffffffffffffffffffffffffffffffff1614613152576040517f08c379a00000000000000000000000000000000000000000000000000000000081526004018080602001828103825260298152602001806145dd6029913960400191505060405180910390fd5b600073ffffffffffffffffffffffffffffffffffffffff168273ffffffffffffffffffffffffffffffffffffffff1614156131d8576040517f08c379a00000000000000000000000000000000000000000000000000000000081526004018080602001828103825260248152602001806144626024913960400191505060405180910390fd5b6131e38383836135fb565b6131ee600082612f04565b61323f81600160008673ffffffffffffffffffffffffffffffffffffffff1673ffffffffffffffffffffffffffffffffffffffff16815260200190815260200160002061360090919063ffffffff16565b5061329181600160008573ffffffffffffffffffffffffffffffffffffffff1673ffffffffffffffffffffffffffffffffffffffff16815260200190815260200160002061361a90919063ffffffff16565b506132a8818360026136349092919063ffffffff16565b50808273ffffffffffffffffffffffffffffffffffffffff168473ffffffffffffffffffffffffffffffffffffffff167fddf252ad1be2c89b69c2b068fc378daa952ba7f163c4a11628f55a4df523b3ef60405160405180910390a4505050565b60006133188360000183613669565b60001c905092915050565b60008060008061333686600001866136ec565b915091508160001c8160001c8090509350935050509250929050565b6000613365846000018460001b84613785565b60001c90509392505050565b600061337f8260000161387b565b9050919050565b6133a082826040518060200160405280600081525061388c565b5050565b6133ad82612edf565b613402576040517f08c379a000000000000000000000000000000000000000000000000000000000815260040180806020018281038252602c8152602001806145b1602c913960400191505060405180910390fd5b80600860008481526020019081526020016000209080519060200190613429929190614368565b505050565b6134398484846130c6565b613445848484846138fd565b61349a576040517f08c379a00000000000000000000000000000000000000000000000000000000081526004018080602001828103825260328152602001806144306032913960400191505060405180910390fd5b50505050565b606060008214156134e8576040518060400160405280600181526020017f300000000000000000000000000000000000000000000000000000000000000081525090506135cb565b600082905060005b60008214613512578080600101915050600a828161350a57fe5b0491506134f0565b6060816040519080825280601f01601f1916602001820160405280156135475781602001600182028036833780820191505090505b50905060006001830390508593505b600084146135c357600a848161356857fe5b0660300160f81b8282806001900393508151811061358257fe5b60200101907effffffffffffffffffffffffffffffffffffffffffffffffffffffffffffff1916908160001a905350600a84816135bb57fe5b049350613556565b819450505050505b919050565b60006135e2836000018360001b613b42565b905092915050565b600081600001805490509050919050565b505050565b6000613612836000018360001b613b65565b905092915050565b600061362c836000018360001b613c4d565b905092915050565b6000613660846000018460001b8473ffffffffffffffffffffffffffffffffffffffff1660001b613cbd565b90509392505050565b6000818360000180549050116136ca576040517f08c379a000000000000000000000000000000000000000000000000000000000815260040180806020018281038252602281526020018061440e6022913960400191505060405180910390fd5b8260000182815481106136d957fe5b9060005260206000200154905092915050565b6000808284600001805490501161374e576040517f08c379a00000000000000000000000000000000000000000000000000000000081526004018080602001828103825260228152602001806145636022913960400191505060405180910390fd5b600084600001848154811061375f57fe5b906000526020600020906002020190508060000154816001015492509250509250929050565b6000808460010160008581526020019081526020016000205490506000811415839061384c576040517f08c379a00000000000000000000000000000000000000000000000000000000081526004018080602001828103825283818151815260200191508051906020019080838360005b838110156138115780820151818401526020810190506137f6565b50505050905090810190601f16801561383e5780820380516001836020036101000a031916815260200191505b509250505060405180910390fd5b5084600001600182038154811061385f57fe5b9060005260206000209060020201600101549150509392505050565b600081600001805490509050919050565b6138968383613d99565b6138a360008484846138fd565b6138f8576040517f08c379a00000000000000000000000000000000000000000000000000000000081526004018080602001828103825260328152602001806144306032913960400191505060405180910390fd5b505050565b600061391e8473ffffffffffffffffffffffffffffffffffffffff16613f8d565b61392b5760019050613b3a565b6060613ac163150b7a0260e01b613940612efc565b888787604051602401808573ffffffffffffffffffffffffffffffffffffffff1673ffffffffffffffffffffffffffffffffffffffff1681526020018473ffffffffffffffffffffffffffffffffffffffff1673ffffffffffffffffffffffffffffffffffffffff16815260200183815260200180602001828103825283818151815260200191508051906020019080838360005b838110156139f05780820151818401526020810190506139d5565b50505050905090810190601f168015613a1d5780820380516001836020036101000a031916815260200191505b5095505050505050604051602081830303815290604052907bffffffffffffffffffffffffffffffffffffffffffffffffffffffff19166020820180517bffffffffffffffffffffffffffffffffffffffffffffffffffffffff8381831617835250505050604051806060016040528060328152602001614430603291398773ffffffffffffffffffffffffffffffffffffffff16613fa09092919063ffffffff16565b90506000818060200190516020811015613ada57600080fd5b8101908080519060200190929190505050905063150b7a0260e01b7bffffffffffffffffffffffffffffffffffffffffffffffffffffffff1916817bffffffffffffffffffffffffffffffffffffffffffffffffffffffff191614925050505b949350505050565b600080836001016000848152602001908152602001600020541415905092915050565b60008083600101600084815260200190815260200160002054905060008114613c415760006001820390506000600186600001805490500390506000866000018281548110613bb057fe5b9060005260206000200154905080876000018481548110613bcd57fe5b9060005260206000200181905550600183018760010160008381526020019081526020016000208190555086600001805480613c0557fe5b60019003818190600052602060002001600090559055866001016000878152602001908152602001600020600090556001945050505050613c47565b60009150505b92915050565b6000613c598383613fb8565b613cb2578260000182908060018154018082558091505060019003906000526020600020016000909190919091505582600001805490508360010160008481526020019081526020016000208190555060019050613cb7565b600090505b92915050565b6000808460010160008581526020019081526020016000205490506000811415613d6457846000016040518060400160405280868152602001858152509080600181540180825580915050600190039060005260206000209060020201600090919091909150600082015181600001556020820151816001015550508460000180549050856001016000868152602001908152602001600020819055506001915050613d92565b82856000016001830381548110613d7757fe5b90600052602060002090600202016001018190555060009150505b9392505050565b600073ffffffffffffffffffffffffffffffffffffffff168273ffffffffffffffffffffffffffffffffffffffff161415613e3c576040517f08c379a00000000000000000000000000000000000000000000000000000000081526004018080602001828103825260208152602001807f4552433732313a206d696e7420746f20746865207a65726f206164647265737381525060200191505060405180910390fd5b613e4581612edf565b15613eb8576040517f08c379a000000000000000000000000000000000000000000000000000000000815260040180806020018281038252601c8152602001807f4552433732313a20746f6b656e20616c7265616479206d696e7465640000000081525060200191505060405180910390fd5b613ec4600083836135fb565b613f1581600160008573ffffffffffffffffffffffffffffffffffffffff1673ffffffffffffffffffffffffffffffffffffffff16815260200190815260200160002061361a90919063ffffffff16565b50613f2c818360026136349092919063ffffffff16565b50808273ffffffffffffffffffffffffffffffffffffffff16600073ffffffffffffffffffffffffffffffffffffffff167fddf252ad1be2c89b69c2b068fc378daa952ba7f163c4a11628f55a4df523b3ef60405160405180910390a45050565b600080823b905060008111915050919050565b6060613faf8484600085613fdb565b90509392505050565b600080836001016000848152602001908152602001600020541415905092915050565b606082471015614036576040517f08c379a00000000000000000000000000000000000000000000000000000000081526004018080602001828103825260268152602001806144866026913960400191505060405180910390fd5b61403f85613f8d565b6140b1576040517f08c379a000000000000000000000000000000000000000000000000000000000815260040180806020018281038252601d8152602001807f416464726573733a2063616c6c20746f206e6f6e2d636f6e747261637400000081525060200191505060405180910390fd5b600060608673ffffffffffffffffffffffffffffffffffffffff1685876040518082805190602001908083835b6020831061410157805182526020820191506020810190506020830392506140de565b6001836020036101000a03801982511681845116808217855250505050505090500191505060006040518083038185875af1925050503d8060008114614163576040519150601f19603f3d011682016040523d82523d6000602084013e614168565b606091505b5091509150614178828286614184565b92505050949350505050565b6060831561419457829050614249565b6000835111156141a75782518084602001fd5b816040517f08c379a00000000000000000000000000000000000000000000000000000000081526004018080602001828103825283818151815260200191508051906020019080838360005b8381101561420e5780820151818401526020810190506141f3565b50505050905090810190601f16801561423b5780820380516001836020036101000a031916815260200191505b509250505060405180910390fd5b9392505050565b604051806101200160405280600073ffffffffffffffffffffffffffffffffffffffff16815260200160008152602001606081526020016000151581526020016000815260200160008152602001600081526020016000151581526020016000151581525090565b604051806040016040528060008152602001600073ffffffffffffffffffffffffffffffffffffffff1681525090565b828054600181600116156101000203166002900490600052602060002090601f016020900481019282601f1061432957805160ff1916838001178555614357565b82800160010185558215614357579182015b8281111561435657825182559160200191906001019061433b565b5b50905061436491906143e8565b5090565b828054600181600116156101000203166002900490600052602060002090601f016020900481019282601f106143a957805160ff19168380011785556143d7565b828001600101855582156143d7579182015b828111156143d65782518255916020019190600101906143bb565b5b5090506143e491906143e8565b5090565b61440a91905b808211156144065760008160009055506001016143ee565b5090565b9056fe456e756d657261626c655365743a20696e646578206f7574206f6620626f756e64734552433732313a207472616e7366657220746f206e6f6e20455243373231526563656976657220696d706c656d656e7465724552433732313a207472616e7366657220746f20746865207a65726f2061646472657373416464726573733a20696e73756666696369656e742062616c616e636520666f722063616c6c4552433732313a206f70657261746f7220717565727920666f72206e6f6e6578697374656e7420746f6b656e4552433732313a20617070726f76652063616c6c6572206973206e6f74206f776e6572206e6f7220617070726f76656420666f7220616c6c4552433732313a2062616c616e636520717565727920666f7220746865207a65726f20616464726573734552433732313a206f776e657220717565727920666f72206e6f6e6578697374656e7420746f6b656e456e756d657261626c654d61703a20696e646578206f7574206f6620626f756e64734552433732313a20617070726f76656420717565727920666f72206e6f6e6578697374656e7420746f6b656e4552433732314d657461646174613a2055524920736574206f66206e6f6e6578697374656e7420746f6b656e4552433732313a207472616e73666572206f6620746f6b656e2074686174206973206e6f74206f776e4552433732314d657461646174613a2055524920717565727920666f72206e6f6e6578697374656e7420746f6b656e4552433732313a20617070726f76616c20746f2063757272656e74206f776e65724552433732313a207472616e736665722063616c6c6572206973206e6f74206f776e6572206e6f7220617070726f766564a2646970667358221220f2e6b3e6b4f60c704a9b64bb5b26edcfc647f3cdf95da9569c499274555cf55864736f6c63430006030033",
  "source": "pragma solidity ^0.6.3;\n\nimport \"@openzeppelin/contracts/token/ERC721/ERC721.sol\";\nimport \"@openzeppelin/contracts/math/SafeMath.sol\";\ncontract ArtAuction is ERC721 {\n   \n  using SafeMath for uint256;  //For Future use\n\n  //Note: Token is minted after it is sold or after auction ends\n \n  //variables that remain static or connstant\n   mapping(uint256 => ArtItem) private _artItems;  //Map id to ArtItem\n  address public owner;   //owner\n  //variables that are dynamic or change\n  uint256 public _tokenIds;  \n  //Unique Image ID that are tokenized\n  uint256 public _artItemIds;\n  //Unique ID up images for sale but not tokenized\n \n  mapping(uint256=>mapping(address => uint256)) public fundsByBidder;\n  //map _artItemIds to fundsByBidder\n  mapping(int256=>uint256) token; //Map tokenIds to _artItemIds so as to connect to struct.\n  mapping(uint256=>bidding) public bid;  //mapping tokenid to bidding\n  bool firsttime = false;  //to mart first successfull bid\n\n   //Events\n    event LogBid(address bidder, uint bid, address highestBidder, uint highestBid, uint highestBindingBid);  \n    event LogWithdrawal(address withdrawer, address withdrawalAccount, uint amount);\n    event LogCanceled();\n\n  //Art Item\n  struct ArtItem {\n        address payable seller; //address of seller\n        uint256 minbid; //minimum price by artist\n        string tokenURI;  //IPFS URL\n        bool exists;    //token by id exists or not\n        uint bidIncrement; //incremention of bid\n        uint time;\n        uint timePeriod;\n        bool cancelled;\n        bool auctionstarted;\n    }\n   \n    struct bidding{\n     uint highestBindingBid; //highestBindingBid of the tokenid\n     address payable highestBidder;\n    }\n\n\n  constructor() public ERC721(\"DART\", \"ART\")  //Initializing ERC721\n  {  \n    owner=msg.sender;\n  }\n \n   //modifiers\n \n  modifier artItemExist(uint256 id) {   //check if item exists\n        require(_artItems[id].exists, \"Not Found\");\n        _;\n    }\n   \n    modifier onlyNotOwner(uint256 id) {            //Check if owner is calling\n      ArtItem memory artItem = _artItems[id];  \n      if (msg.sender == artItem.seller) revert();\n    _;\n     }\n\n    modifier onlyOwner(uint256 id)\n     {\n        ArtItem memory artItem = _artItems[id];  \n        if (msg.sender != artItem.seller) revert();\n         _;\n     }\n     \n    modifier minbid(uint256 id)\n    {\n        ArtItem memory artItem = _artItems[id];\n        if(msg.value<artItem.minbid) revert();\n        _;\n    }\n\n  function addArtItem(uint256 price, string memory tokenURI, uint _bidincrement, uint timePeriod) public {\n        require(price >= 0, \"Price cannot be lesss than 0\");\n\n        _artItemIds++;\n   \n        _artItems[_artItemIds] = ArtItem(msg.sender, price, tokenURI, true, _bidincrement, now, timePeriod,false,false);\n    }\n\n       \n\n  function getArtItem(uint256 id)   //get art item info\n        public\n        view\n        artItemExist(id)\n        returns (\n            uint256,\n            uint256,\n            string memory,\n            uint,\n            uint,\n            uint,\n            bool\n        )\n    {\n        ArtItem memory artItem = _artItems[id];\n        bidding memory bid = bid[id];\n        return (id, artItem.minbid, artItem.tokenURI, bid.highestBindingBid,artItem.time,artItem.timePeriod,artItem.cancelled);\n    }\n   \n    //auction functions :\n   \n    //Cancel auction\n    function cancelAuction(uint256 id) public payable\n    returns (bool success)\n   {\n   \n    ArtItem storage artItem = _artItems[id];  \n    require(artItem.cancelled==false);\n    if((artItem.time + (artItem.timePeriod * 1 seconds) < now))  //mint token if auctionstarted\n    {\n    bidding storage bid = bid[id];\n    _tokenIds++;\n    //token[_tokenIds] = _artItemIds;\n    _safeMint(msg.sender, _tokenIds);\n    _setTokenURI(_tokenIds, artItem.tokenURI);\n    artItem.cancelled=true;\n     // the auction's owner should be allowed to withdraw the highestBindingBid\n   \n    if (bid.highestBindingBid == 0) revert();\n    fundsByBidder[id][bid.highestBidder] -= bid.highestBindingBid;\n    // send the funds\n    if (!msg.sender.send(bid.highestBindingBid)) revert();\n        }\n       \n   \n    LogCanceled();\n    return artItem.cancelled;    \n   }\n   \n   function placeBid(uint256 id) public\n    payable\n    onlyNotOwner(id)\n    minbid(id)\n   \n    returns (bool success)\n{  \n\n    // reject payments of 0 ETH\n    if (msg.value == 0) revert();\n   \n    // calculate the user's total bid based on the current amount they've sent to the contract\n    // plus whatever has been sent with this transaction\n    bidding storage bid = bid[id];\n    ArtItem storage artItem = _artItems[id];  \n   \n    require(artItem.cancelled==false);\n \n    uint newBid = fundsByBidder[id][msg.sender] + msg.value;\n\n    // if the user isn't even willing to overbid the highest binding bid, there's nothing for us\n    // to do except revert the transaction.\n    if (newBid <= bid.highestBindingBid) revert();\n\n    // grab the previous highest bid (before updating fundsByBidder, in case msg.sender is the\n    // highestBidder and is just increasing their maximum bid).\n    uint highestBid = fundsByBidder[id][bid.highestBidder];\n\n    fundsByBidder[id][msg.sender] = newBid;\n\n    if (newBid <= highestBid) {\n        // if the user has overbid the highestBindingBid but not the highestBid, we simply\n        // increase the highestBindingBid and leave highestBidder alone.\n\n        // note that this case is impossible if msg.sender == highestBidder because you can never\n        // bid less ETH than you already have.\n        if(newBid+artItem.bidIncrement> highestBid)\n        {\n            bid.highestBindingBid = highestBid;\n        }\n        else\n        {\n            bid.highestBindingBid = newBid+artItem.bidIncrement;\n        }\n    } else {\n        // if msg.sender is already the highest bidder, they must simply be wanting to raise\n        // their maximum bid, in which case we shouldn't increase the highestBindingBid.\n\n        // if the user is NOT highestBidder, and has overbid highestBid completely, we set them\n        // as the new highestBidder and recalculate highestBindingBid.\n\n        if (msg.sender != bid.highestBidder) {\n            bid.highestBidder = msg.sender;\n        if(newBid+artItem.bidIncrement> highestBid)\n        {   if(firsttime==false)\n            bid.highestBindingBid = highestBid;\n            else\n            {bid.highestBindingBid = artItem.minbid + artItem.bidIncrement;\n            firsttime=true;\n            }\n        }\n        else\n        {\n            bid.highestBindingBid = newBid+artItem.bidIncrement;\n        }\n        }\n        highestBid = newBid;\n    }\n    if(artItem.auctionstarted==false)\n    {\n        bid.highestBindingBid = msg.value;\n    }\n    LogBid(msg.sender, newBid, bid.highestBidder, highestBid, bid.highestBindingBid);\n    artItem.auctionstarted = true;\n    return true;\n    }\n   \n    function withdraw(uint256 id) public payable onlyNotOwner(id)\n    returns (bool success)\n{  \n    require(_artItems[id].cancelled==true);\n    require(_artItems[id].auctionstarted==true);\n    address payable withdrawalAccount;\n    uint withdrawalAmount;\n    bidding storage bid = bid[id];\n   \n        if (msg.sender == bid.highestBidder) {\n            // the highest bidder should only be allowed to withdraw the difference between their\n            // highest bid and the highestBindingBid\n            withdrawalAccount = bid.highestBidder;\n            withdrawalAmount = fundsByBidder[id][bid.highestBidder];\n        }\n        else {\n            // anyone who participated but did not win the auction should be allowed to withdraw\n            // the full amount of their funds\n            withdrawalAccount = msg.sender;\n            withdrawalAmount = fundsByBidder[id][withdrawalAccount];\n        }\n\n    if (withdrawalAmount == 0) revert();\n\n    fundsByBidder[id][withdrawalAccount] -= withdrawalAmount;\n\n    // send the funds\n    if (!msg.sender.send(withdrawalAmount)) revert();\n\n    LogWithdrawal(msg.sender, withdrawalAccount, withdrawalAmount);\n\n    return true;\n}\n       \n}\n\n",
  "sourcePath": "/home/ciberexplosion/Desktop/NFT-Auction-Marketplace/src/contracts/ArtAuction.sol",
  "compiler": {
    "name": "solc",
    "version": "0.6.3+commit.8dda9521.Emscripten.clang"
  },
  "schemaVersion": "3.3.4",
  "updatedAt": "2021-02-19T17:20:28.248Z",
  "devdoc": {
    "methods": {
      "approve(address,uint256)": {
        "details": "See {IERC721-approve}."
      },
      "balanceOf(address)": {
        "details": "See {IERC721-balanceOf}."
      },
      "baseURI()": {
        "details": "Returns the base URI set via {_setBaseURI}. This will be automatically added as a prefix in {tokenURI} to each token's URI, or to the token ID if no specific URI is set for that token ID."
      },
      "getApproved(uint256)": {
        "details": "See {IERC721-getApproved}."
      },
      "isApprovedForAll(address,address)": {
        "details": "See {IERC721-isApprovedForAll}."
      },
      "name()": {
        "details": "See {IERC721Metadata-name}."
      },
      "ownerOf(uint256)": {
        "details": "See {IERC721-ownerOf}."
      },
      "safeTransferFrom(address,address,uint256)": {
        "details": "See {IERC721-safeTransferFrom}."
      },
      "safeTransferFrom(address,address,uint256,bytes)": {
        "details": "See {IERC721-safeTransferFrom}."
      },
      "setApprovalForAll(address,bool)": {
        "details": "See {IERC721-setApprovalForAll}."
      },
      "supportsInterface(bytes4)": {
        "details": "See {IERC165-supportsInterface}.     * Time complexity O(1), guaranteed to always use less than 30 000 gas."
      },
      "symbol()": {
        "details": "See {IERC721Metadata-symbol}."
      },
      "tokenByIndex(uint256)": {
        "details": "See {IERC721Enumerable-tokenByIndex}."
      },
      "tokenOfOwnerByIndex(address,uint256)": {
        "details": "See {IERC721Enumerable-tokenOfOwnerByIndex}."
      },
      "tokenURI(uint256)": {
        "details": "See {IERC721Metadata-tokenURI}."
      },
      "totalSupply()": {
        "details": "See {IERC721Enumerable-totalSupply}."
      },
      "transferFrom(address,address,uint256)": {
        "details": "See {IERC721-transferFrom}."
      }
    }
  },
  "userdoc": {
    "methods": {}
  }
}