{
  "contractName": "ArtAuction",
  "abi": [
    {
      "inputs": [],
      "stateMutability": "nonpayable",
      "type": "constructor"
    },
    {
      "anonymous": false,
      "inputs": [
        {
          "indexed": true,
          "internalType": "address",
          "name": "owner",
          "type": "address"
        },
        {
          "indexed": true,
          "internalType": "address",
          "name": "approved",
          "type": "address"
        },
        {
          "indexed": true,
          "internalType": "uint256",
          "name": "tokenId",
          "type": "uint256"
        }
      ],
      "name": "Approval",
      "type": "event"
    },
    {
      "anonymous": false,
      "inputs": [
        {
          "indexed": true,
          "internalType": "address",
          "name": "owner",
          "type": "address"
        },
        {
          "indexed": true,
          "internalType": "address",
          "name": "operator",
          "type": "address"
        },
        {
          "indexed": false,
          "internalType": "bool",
          "name": "approved",
          "type": "bool"
        }
      ],
      "name": "ApprovalForAll",
      "type": "event"
    },
    {
      "anonymous": false,
      "inputs": [
        {
          "indexed": false,
          "internalType": "address",
          "name": "bidder",
          "type": "address"
        },
        {
          "indexed": false,
          "internalType": "uint256",
          "name": "bid",
          "type": "uint256"
        },
        {
          "indexed": false,
          "internalType": "address",
          "name": "highestBidder",
          "type": "address"
        },
        {
          "indexed": false,
          "internalType": "uint256",
          "name": "highestBid",
          "type": "uint256"
        },
        {
          "indexed": false,
          "internalType": "uint256",
          "name": "highestBindingBid",
          "type": "uint256"
        }
      ],
      "name": "LogBid",
      "type": "event"
    },
    {
      "anonymous": false,
      "inputs": [],
      "name": "LogCanceled",
      "type": "event"
    },
    {
      "anonymous": false,
      "inputs": [
        {
          "indexed": false,
          "internalType": "address",
          "name": "withdrawer",
          "type": "address"
        },
        {
          "indexed": false,
          "internalType": "address",
          "name": "withdrawalAccount",
          "type": "address"
        },
        {
          "indexed": false,
          "internalType": "uint256",
          "name": "amount",
          "type": "uint256"
        }
      ],
      "name": "LogWithdrawal",
      "type": "event"
    },
    {
      "anonymous": false,
      "inputs": [
        {
          "indexed": true,
          "internalType": "address",
          "name": "from",
          "type": "address"
        },
        {
          "indexed": true,
          "internalType": "address",
          "name": "to",
          "type": "address"
        },
        {
          "indexed": true,
          "internalType": "uint256",
          "name": "tokenId",
          "type": "uint256"
        }
      ],
      "name": "Transfer",
      "type": "event"
    },
    {
      "inputs": [],
      "name": "_artItemIds",
      "outputs": [
        {
          "internalType": "uint256",
          "name": "",
          "type": "uint256"
        }
      ],
      "stateMutability": "view",
      "type": "function"
    },
    {
      "inputs": [],
      "name": "_tokenIds",
      "outputs": [
        {
          "internalType": "uint256",
          "name": "",
          "type": "uint256"
        }
      ],
      "stateMutability": "view",
      "type": "function"
    },
    {
      "inputs": [
        {
          "internalType": "address",
          "name": "to",
          "type": "address"
        },
        {
          "internalType": "uint256",
          "name": "tokenId",
          "type": "uint256"
        }
      ],
      "name": "approve",
      "outputs": [],
      "stateMutability": "nonpayable",
      "type": "function"
    },
    {
      "inputs": [
        {
          "internalType": "address",
          "name": "owner",
          "type": "address"
        }
      ],
      "name": "balanceOf",
      "outputs": [
        {
          "internalType": "uint256",
          "name": "",
          "type": "uint256"
        }
      ],
      "stateMutability": "view",
      "type": "function"
    },
    {
      "inputs": [],
      "name": "baseURI",
      "outputs": [
        {
          "internalType": "string",
          "name": "",
          "type": "string"
        }
      ],
      "stateMutability": "view",
      "type": "function"
    },
    {
      "inputs": [
        {
          "internalType": "uint256",
          "name": "",
          "type": "uint256"
        }
      ],
      "name": "bid",
      "outputs": [
        {
          "internalType": "uint256",
          "name": "highestBindingBid",
          "type": "uint256"
        },
        {
          "internalType": "address payable",
          "name": "highestBidder",
          "type": "address"
        }
      ],
      "stateMutability": "view",
      "type": "function"
    },
    {
      "inputs": [
        {
          "internalType": "uint256",
          "name": "",
          "type": "uint256"
        },
        {
          "internalType": "address",
          "name": "",
          "type": "address"
        }
      ],
      "name": "fundsByBidder",
      "outputs": [
        {
          "internalType": "uint256",
          "name": "",
          "type": "uint256"
        }
      ],
      "stateMutability": "view",
      "type": "function"
    },
    {
      "inputs": [
        {
          "internalType": "uint256",
          "name": "tokenId",
          "type": "uint256"
        }
      ],
      "name": "getApproved",
      "outputs": [
        {
          "internalType": "address",
          "name": "",
          "type": "address"
        }
      ],
      "stateMutability": "view",
      "type": "function"
    },
    {
      "inputs": [
        {
          "internalType": "address",
          "name": "owner",
          "type": "address"
        },
        {
          "internalType": "address",
          "name": "operator",
          "type": "address"
        }
      ],
      "name": "isApprovedForAll",
      "outputs": [
        {
          "internalType": "bool",
          "name": "",
          "type": "bool"
        }
      ],
      "stateMutability": "view",
      "type": "function"
    },
    {
      "inputs": [],
      "name": "name",
      "outputs": [
        {
          "internalType": "string",
          "name": "",
          "type": "string"
        }
      ],
      "stateMutability": "view",
      "type": "function"
    },
    {
      "inputs": [],
      "name": "owner",
      "outputs": [
        {
          "internalType": "address",
          "name": "",
          "type": "address"
        }
      ],
      "stateMutability": "view",
      "type": "function"
    },
    {
      "inputs": [
        {
          "internalType": "uint256",
          "name": "tokenId",
          "type": "uint256"
        }
      ],
      "name": "ownerOf",
      "outputs": [
        {
          "internalType": "address",
          "name": "",
          "type": "address"
        }
      ],
      "stateMutability": "view",
      "type": "function"
    },
    {
      "inputs": [
        {
          "internalType": "address",
          "name": "from",
          "type": "address"
        },
        {
          "internalType": "address",
          "name": "to",
          "type": "address"
        },
        {
          "internalType": "uint256",
          "name": "tokenId",
          "type": "uint256"
        }
      ],
      "name": "safeTransferFrom",
      "outputs": [],
      "stateMutability": "nonpayable",
      "type": "function"
    },
    {
      "inputs": [
        {
          "internalType": "address",
          "name": "from",
          "type": "address"
        },
        {
          "internalType": "address",
          "name": "to",
          "type": "address"
        },
        {
          "internalType": "uint256",
          "name": "tokenId",
          "type": "uint256"
        },
        {
          "internalType": "bytes",
          "name": "_data",
          "type": "bytes"
        }
      ],
      "name": "safeTransferFrom",
      "outputs": [],
      "stateMutability": "nonpayable",
      "type": "function"
    },
    {
      "inputs": [
        {
          "internalType": "address",
          "name": "operator",
          "type": "address"
        },
        {
          "internalType": "bool",
          "name": "approved",
          "type": "bool"
        }
      ],
      "name": "setApprovalForAll",
      "outputs": [],
      "stateMutability": "nonpayable",
      "type": "function"
    },
    {
      "inputs": [
        {
          "internalType": "bytes4",
          "name": "interfaceId",
          "type": "bytes4"
        }
      ],
      "name": "supportsInterface",
      "outputs": [
        {
          "internalType": "bool",
          "name": "",
          "type": "bool"
        }
      ],
      "stateMutability": "view",
      "type": "function"
    },
    {
      "inputs": [],
      "name": "symbol",
      "outputs": [
        {
          "internalType": "string",
          "name": "",
          "type": "string"
        }
      ],
      "stateMutability": "view",
      "type": "function"
    },
    {
      "inputs": [
        {
          "internalType": "uint256",
          "name": "index",
          "type": "uint256"
        }
      ],
      "name": "tokenByIndex",
      "outputs": [
        {
          "internalType": "uint256",
          "name": "",
          "type": "uint256"
        }
      ],
      "stateMutability": "view",
      "type": "function"
    },
    {
      "inputs": [
        {
          "internalType": "address",
          "name": "owner",
          "type": "address"
        },
        {
          "internalType": "uint256",
          "name": "index",
          "type": "uint256"
        }
      ],
      "name": "tokenOfOwnerByIndex",
      "outputs": [
        {
          "internalType": "uint256",
          "name": "",
          "type": "uint256"
        }
      ],
      "stateMutability": "view",
      "type": "function"
    },
    {
      "inputs": [
        {
          "internalType": "uint256",
          "name": "tokenId",
          "type": "uint256"
        }
      ],
      "name": "tokenURI",
      "outputs": [
        {
          "internalType": "string",
          "name": "",
          "type": "string"
        }
      ],
      "stateMutability": "view",
      "type": "function"
    },
    {
      "inputs": [],
      "name": "totalSupply",
      "outputs": [
        {
          "internalType": "uint256",
          "name": "",
          "type": "uint256"
        }
      ],
      "stateMutability": "view",
      "type": "function"
    },
    {
      "inputs": [
        {
          "internalType": "address",
          "name": "from",
          "type": "address"
        },
        {
          "internalType": "address",
          "name": "to",
          "type": "address"
        },
        {
          "internalType": "uint256",
          "name": "tokenId",
          "type": "uint256"
        }
      ],
      "name": "transferFrom",
      "outputs": [],
      "stateMutability": "nonpayable",
      "type": "function"
    },
    {
      "inputs": [
        {
          "internalType": "uint256",
          "name": "price",
          "type": "uint256"
        },
        {
          "internalType": "string",
          "name": "tokenURI",
          "type": "string"
        },
        {
          "internalType": "uint256",
          "name": "_bidincrement",
          "type": "uint256"
        },
        {
          "internalType": "uint256",
          "name": "timePeriod",
          "type": "uint256"
        },
        {
          "internalType": "string",
          "name": "name",
          "type": "string"
        }
      ],
      "name": "addArtItem",
      "outputs": [],
      "stateMutability": "nonpayable",
      "type": "function"
    },
    {
      "inputs": [
        {
          "internalType": "uint256",
          "name": "id",
          "type": "uint256"
        }
      ],
      "name": "getArtItem",
      "outputs": [
        {
          "internalType": "uint256",
          "name": "",
          "type": "uint256"
        },
        {
          "internalType": "uint256",
          "name": "",
          "type": "uint256"
        },
        {
          "internalType": "string",
          "name": "",
          "type": "string"
        },
        {
          "internalType": "uint256",
          "name": "",
          "type": "uint256"
        },
        {
          "internalType": "uint256",
          "name": "",
          "type": "uint256"
        },
        {
          "internalType": "uint256",
          "name": "",
          "type": "uint256"
        },
        {
          "internalType": "bool",
          "name": "",
          "type": "bool"
        },
        {
          "internalType": "string",
          "name": "",
          "type": "string"
        },
        {
          "internalType": "address payable",
          "name": "",
          "type": "address"
        }
      ],
      "stateMutability": "view",
      "type": "function"
    },
    {
      "inputs": [
        {
          "internalType": "uint256",
          "name": "id",
          "type": "uint256"
        }
      ],
      "name": "cancelAuction",
      "outputs": [
        {
          "internalType": "bool",
          "name": "success",
          "type": "bool"
        }
      ],
      "stateMutability": "payable",
      "type": "function"
    },
    {
      "inputs": [
        {
          "internalType": "uint256",
          "name": "id",
          "type": "uint256"
        }
      ],
      "name": "placeBid",
      "outputs": [
        {
          "internalType": "bool",
          "name": "success",
          "type": "bool"
        }
      ],
      "stateMutability": "payable",
      "type": "function"
    },
    {
      "inputs": [
        {
          "internalType": "uint256",
          "name": "id",
          "type": "uint256"
        }
      ],
      "name": "withdraw",
      "outputs": [
        {
          "internalType": "bool",
          "name": "success",
          "type": "bool"
        }
      ],
      "stateMutability": "payable",
      "type": "function"
    }
  ],
  "bytecode": "0x60806040526000601160006101000a81548160ff0219169083151502179055503480156200002c57600080fd5b506040518060400160405280600481526020017f44415254000000000000000000000000000000000000000000000000000000008152506040518060400160405280600381526020017f4152540000000000000000000000000000000000000000000000000000000000815250620000b16301ffc9a760e01b6200017460201b60201c565b8160069080519060200190620000c99291906200027d565b508060079080519060200190620000e29291906200027d565b50620000fb6380ac58cd60e01b6200017460201b60201c565b62000113635b5e139f60e01b6200017460201b60201c565b6200012b63780e9d6360e01b6200017460201b60201c565b505033600b60006101000a81548173ffffffffffffffffffffffffffffffffffffffff021916908373ffffffffffffffffffffffffffffffffffffffff1602179055506200032c565b63ffffffff60e01b817bffffffffffffffffffffffffffffffffffffffffffffffffffffffff1916141562000211576040517f08c379a000000000000000000000000000000000000000000000000000000000815260040180806020018281038252601c8152602001807f4552433136353a20696e76616c696420696e746572666163652069640000000081525060200191505060405180910390fd5b6001600080837bffffffffffffffffffffffffffffffffffffffffffffffffffffffff19167bffffffffffffffffffffffffffffffffffffffffffffffffffffffff1916815260200190815260200160002060006101000a81548160ff02191690831515021790555050565b828054600181600116156101000203166002900490600052602060002090601f016020900481019282601f10620002c057805160ff1916838001178555620002f1565b82800160010185558215620002f1579182015b82811115620002f0578251825591602001919060010190620002d3565b5b50905062000300919062000304565b5090565b6200032991905b80821115620003255760008160009055506001016200030b565b5090565b90565b614abe806200033c6000396000f3fe60806040526004361061019c5760003560e01c80634f6ccce7116100ec5780639979ef451161008a578063aa46a40011610064578063aa46a40014610cf8578063b88d4fde14610d23578063c87b56dd14610e35578063e985e9c514610ee95761019c565b80639979ef4514610ad8578063a22cb46514610b1e578063a25cf92d14610b7b5761019c565b806370a08231116100c657806370a08231146109465780638da5cb5b146109ab57806395d89b4114610a0257806396b5a75514610a925761019c565b80634f6ccce7146107ec5780636352211e1461083b5780636c0360eb146108b65761019c565b806321f004eb116101595780632e1a7d4d116101335780632e1a7d4d1461063a5780632f745c591461068057806342842e0e146106ef578063454a2ab31461076a5761019c565b806321f004eb146103cf57806323b872dd1461055057806326fe3065146105cb5761019c565b806301ffc9a7146101a157806306fdde0314610213578063081812fc146102a3578063095ea7b31461031e57806314797de71461037957806318160ddd146103a4575b600080fd5b3480156101ad57600080fd5b506101f9600480360360208110156101c457600080fd5b8101908080357bffffffffffffffffffffffffffffffffffffffffffffffffffffffff19169060200190929190505050610f72565b604051808215151515815260200191505060405180910390f35b34801561021f57600080fd5b50610228610fd9565b6040518080602001828103825283818151815260200191508051906020019080838360005b8381101561026857808201518184015260208101905061024d565b50505050905090810190601f1680156102955780820380516001836020036101000a031916815260200191505b509250505060405180910390f35b3480156102af57600080fd5b506102dc600480360360208110156102c657600080fd5b810190808035906020019092919050505061107b565b604051808273ffffffffffffffffffffffffffffffffffffffff1673ffffffffffffffffffffffffffffffffffffffff16815260200191505060405180910390f35b34801561032a57600080fd5b506103776004803603604081101561034157600080fd5b81019080803573ffffffffffffffffffffffffffffffffffffffff16906020019092919080359060200190929190505050611116565b005b34801561038557600080fd5b5061038e61125a565b6040518082815260200191505060405180910390f35b3480156103b057600080fd5b506103b9611260565b6040518082815260200191505060405180910390f35b3480156103db57600080fd5b50610408600480360360208110156103f257600080fd5b8101908080359060200190929190505050611271565b604051808a81526020018981526020018060200188815260200187815260200186815260200185151515158152602001806020018473ffffffffffffffffffffffffffffffffffffffff1673ffffffffffffffffffffffffffffffffffffffff16815260200183810383528a818151815260200191508051906020019080838360005b838110156104a657808201518184015260208101905061048b565b50505050905090810190601f1680156104d35780820380516001836020036101000a031916815260200191505b50838103825285818151815260200191508051906020019080838360005b8381101561050c5780820151818401526020810190506104f1565b50505050905090810190601f1680156105395780820380516001836020036101000a031916815260200191505b509b50505050505050505050505060405180910390f35b34801561055c57600080fd5b506105c96004803603606081101561057357600080fd5b81019080803573ffffffffffffffffffffffffffffffffffffffff169060200190929190803573ffffffffffffffffffffffffffffffffffffffff1690602001909291908035906020019092919050505061162d565b005b3480156105d757600080fd5b50610624600480360360408110156105ee57600080fd5b8101908080359060200190929190803573ffffffffffffffffffffffffffffffffffffffff1690602001909291905050506116a3565b6040518082815260200191505060405180910390f35b6106666004803603602081101561065057600080fd5b81019080803590602001909291905050506116c8565b604051808215151515815260200191505060405180910390f35b34801561068c57600080fd5b506106d9600480360360408110156106a357600080fd5b81019080803573ffffffffffffffffffffffffffffffffffffffff16906020019092919080359060200190929190505050611c6f565b6040518082815260200191505060405180910390f35b3480156106fb57600080fd5b506107686004803603606081101561071257600080fd5b81019080803573ffffffffffffffffffffffffffffffffffffffff169060200190929190803573ffffffffffffffffffffffffffffffffffffffff16906020019092919080359060200190929190505050611cca565b005b34801561077657600080fd5b506107a36004803603602081101561078d57600080fd5b8101908080359060200190929190505050611cea565b604051808381526020018273ffffffffffffffffffffffffffffffffffffffff1673ffffffffffffffffffffffffffffffffffffffff1681526020019250505060405180910390f35b3480156107f857600080fd5b506108256004803603602081101561080f57600080fd5b8101908080359060200190929190505050611d2e565b6040518082815260200191505060405180910390f35b34801561084757600080fd5b506108746004803603602081101561085e57600080fd5b8101908080359060200190929190505050611d51565b604051808273ffffffffffffffffffffffffffffffffffffffff1673ffffffffffffffffffffffffffffffffffffffff16815260200191505060405180910390f35b3480156108c257600080fd5b506108cb611d88565b6040518080602001828103825283818151815260200191508051906020019080838360005b8381101561090b5780820151818401526020810190506108f0565b50505050905090810190601f1680156109385780820380516001836020036101000a031916815260200191505b509250505060405180910390f35b34801561095257600080fd5b506109956004803603602081101561096957600080fd5b81019080803573ffffffffffffffffffffffffffffffffffffffff169060200190929190505050611e2a565b6040518082815260200191505060405180910390f35b3480156109b757600080fd5b506109c0611eff565b604051808273ffffffffffffffffffffffffffffffffffffffff1673ffffffffffffffffffffffffffffffffffffffff16815260200191505060405180910390f35b348015610a0e57600080fd5b50610a17611f25565b6040518080602001828103825283818151815260200191508051906020019080838360005b83811015610a57578082015181840152602081019050610a3c565b50505050905090810190601f168015610a845780820380516001836020036101000a031916815260200191505b509250505060405180910390f35b610abe60048036036020811015610aa857600080fd5b8101908080359060200190929190505050611fc7565b604051808215151515815260200191505060405180910390f35b610b0460048036036020811015610aee57600080fd5b8101908080359060200190929190505050612232565b604051808215151515815260200191505060405180910390f35b348015610b2a57600080fd5b50610b7960048036036040811015610b4157600080fd5b81019080803573ffffffffffffffffffffffffffffffffffffffff169060200190929190803515159060200190929190505050612b0f565b005b348015610b8757600080fd5b50610cf6600480360360a0811015610b9e57600080fd5b810190808035906020019092919080359060200190640100000000811115610bc557600080fd5b820183602082011115610bd757600080fd5b80359060200191846001830284011164010000000083111715610bf957600080fd5b91908080601f016020809104026020016040519081016040528093929190818152602001838380828437600081840152601f19601f820116905080830192505050505050509192919290803590602001909291908035906020019092919080359060200190640100000000811115610c7057600080fd5b820183602082011115610c8257600080fd5b80359060200191846001830284011164010000000083111715610ca457600080fd5b91908080601f016020809104026020016040519081016040528093929190818152602001838380828437600081840152601f19601f820116905080830192505050505050509192919290505050612cc7565b005b348015610d0457600080fd5b50610d0d612edf565b6040518082815260200191505060405180910390f35b348015610d2f57600080fd5b50610e3360048036036080811015610d4657600080fd5b81019080803573ffffffffffffffffffffffffffffffffffffffff169060200190929190803573ffffffffffffffffffffffffffffffffffffffff1690602001909291908035906020019092919080359060200190640100000000811115610dad57600080fd5b820183602082011115610dbf57600080fd5b80359060200191846001830284011164010000000083111715610de157600080fd5b91908080601f016020809104026020016040519081016040528093929190818152602001838380828437600081840152601f19601f820116905080830192505050505050509192919290505050612ee5565b005b348015610e4157600080fd5b50610e6e60048036036020811015610e5857600080fd5b8101908080359060200190929190505050612f5d565b6040518080602001828103825283818151815260200191508051906020019080838360005b83811015610eae578082015181840152602081019050610e93565b50505050905090810190601f168015610edb5780820380516001836020036101000a031916815260200191505b509250505060405180910390f35b348015610ef557600080fd5b50610f5860048036036040811015610f0c57600080fd5b81019080803573ffffffffffffffffffffffffffffffffffffffff169060200190929190803573ffffffffffffffffffffffffffffffffffffffff169060200190929190505050613246565b604051808215151515815260200191505060405180910390f35b6000806000837bffffffffffffffffffffffffffffffffffffffffffffffffffffffff19167bffffffffffffffffffffffffffffffffffffffffffffffffffffffff1916815260200190815260200160002060009054906101000a900460ff169050919050565b606060068054600181600116156101000203166002900480601f0160208091040260200160405190810160405280929190818152602001828054600181600116156101000203166002900480156110715780601f1061104657610100808354040283529160200191611071565b820191906000526020600020905b81548152906001019060200180831161105457829003601f168201915b5050505050905090565b6000611086826132da565b6110db576040517f08c379a000000000000000000000000000000000000000000000000000000000815260040180806020018281038252602c815260200180614987602c913960400191505060405180910390fd5b6004600083815260200190815260200160002060009054906101000a900473ffffffffffffffffffffffffffffffffffffffff169050919050565b600061112182611d51565b90508073ffffffffffffffffffffffffffffffffffffffff168373ffffffffffffffffffffffffffffffffffffffff1614156111a8576040517f08c379a0000000000000000000000000000000000000000000000000000000008152600401808060200182810382526021815260200180614a376021913960400191505060405180910390fd5b8073ffffffffffffffffffffffffffffffffffffffff166111c76132f7565b73ffffffffffffffffffffffffffffffffffffffff1614806111f657506111f5816111f06132f7565b613246565b5b61124b576040517f08c379a00000000000000000000000000000000000000000000000000000000081526004018080602001828103825260388152602001806148da6038913960400191505060405180910390fd5b61125583836132ff565b505050565b600d5481565b600061126c60026133b8565b905090565b60008060606000806000806060600089600a600082815260200190815260200160002060030160009054906101000a900460ff16611317576040517f08c379a00000000000000000000000000000000000000000000000000000000081526004018080602001828103825260098152602001807f4e6f7420466f756e64000000000000000000000000000000000000000000000081525060200191505060405180910390fd5b61131f61464b565b600a60008d8152602001908152602001600020604051806101400160405290816000820160009054906101000a900473ffffffffffffffffffffffffffffffffffffffff1673ffffffffffffffffffffffffffffffffffffffff1673ffffffffffffffffffffffffffffffffffffffff16815260200160018201548152602001600282018054600181600116156101000203166002900480601f0160208091040260200160405190810160405280929190818152602001828054600181600116156101000203166002900480156114375780601f1061140c57610100808354040283529160200191611437565b820191906000526020600020905b81548152906001019060200180831161141a57829003601f168201915b505050505081526020016003820160009054906101000a900460ff161515151581526020016004820154815260200160058201548152602001600682015481526020016007820160009054906101000a900460ff161515151581526020016007820160019054906101000a900460ff16151515158152602001600882018054600181600116156101000203166002900480601f0160208091040260200160405190810160405280929190818152602001828054600181600116156101000203166002900480156115485780601f1061151d57610100808354040283529160200191611548565b820191906000526020600020905b81548152906001019060200180831161152b57829003601f168201915b505050505081525050905061155b6146ba565b601060008e8152602001908152602001600020604051806040016040529081600082015481526020016001820160009054906101000a900473ffffffffffffffffffffffffffffffffffffffff1673ffffffffffffffffffffffffffffffffffffffff1673ffffffffffffffffffffffffffffffffffffffff168152505090508c8260200151836040015183600001518560a001518660c001518760e0015188610120015189600001518696508191509b509b509b509b509b509b509b509b509b505050509193959799909294969850565b61163e6116386132f7565b826133cd565b611693576040517f08c379a0000000000000000000000000000000000000000000000000000000008152600401808060200182810382526031815260200180614a586031913960400191505060405180910390fd5b61169e8383836134c1565b505050565b600e602052816000526040600020602052806000526040600020600091509150505481565b6000816116d361464b565b600a6000838152602001908152602001600020604051806101400160405290816000820160009054906101000a900473ffffffffffffffffffffffffffffffffffffffff1673ffffffffffffffffffffffffffffffffffffffff1673ffffffffffffffffffffffffffffffffffffffff16815260200160018201548152602001600282018054600181600116156101000203166002900480601f0160208091040260200160405190810160405280929190818152602001828054600181600116156101000203166002900480156117eb5780601f106117c0576101008083540402835291602001916117eb565b820191906000526020600020905b8154815290600101906020018083116117ce57829003601f168201915b505050505081526020016003820160009054906101000a900460ff161515151581526020016004820154815260200160058201548152602001600682015481526020016007820160009054906101000a900460ff161515151581526020016007820160019054906101000a900460ff16151515158152602001600882018054600181600116156101000203166002900480601f0160208091040260200160405190810160405280929190818152602001828054600181600116156101000203166002900480156118fc5780601f106118d1576101008083540402835291602001916118fc565b820191906000526020600020905b8154815290600101906020018083116118df57829003601f168201915b5050505050815250509050806000015173ffffffffffffffffffffffffffffffffffffffff163373ffffffffffffffffffffffffffffffffffffffff16141561194457600080fd5b60011515600a600086815260200190815260200160002060070160009054906101000a900460ff1615151461197857600080fd5b60011515600a600086815260200190815260200160002060070160019054906101000a900460ff161515146119ac57600080fd5b60008060006010600088815260200190815260200160002090508060010160009054906101000a900473ffffffffffffffffffffffffffffffffffffffff1673ffffffffffffffffffffffffffffffffffffffff163373ffffffffffffffffffffffffffffffffffffffff161415611ac1578060010160009054906101000a900473ffffffffffffffffffffffffffffffffffffffff169250600e600088815260200190815260200160002060008260010160009054906101000a900473ffffffffffffffffffffffffffffffffffffffff1673ffffffffffffffffffffffffffffffffffffffff1673ffffffffffffffffffffffffffffffffffffffff168152602001908152602001600020549150611b18565b339250600e600088815260200190815260200160002060008473ffffffffffffffffffffffffffffffffffffffff1673ffffffffffffffffffffffffffffffffffffffff1681526020019081526020016000205491505b6000821415611b2657600080fd5b81600e600089815260200190815260200160002060008573ffffffffffffffffffffffffffffffffffffffff1673ffffffffffffffffffffffffffffffffffffffff168152602001908152602001600020600082825403925050819055503373ffffffffffffffffffffffffffffffffffffffff166108fc839081150290604051600060405180830381858888f19350505050611bc257600080fd5b7f0ec497a8ae5b1ba29c60470ef651def995fac3deebbdcc56c47a4e5f51a4c2bd338484604051808473ffffffffffffffffffffffffffffffffffffffff1673ffffffffffffffffffffffffffffffffffffffff1681526020018373ffffffffffffffffffffffffffffffffffffffff1673ffffffffffffffffffffffffffffffffffffffff168152602001828152602001935050505060405180910390a1600195505050505050919050565b6000611cc282600160008673ffffffffffffffffffffffffffffffffffffffff1673ffffffffffffffffffffffffffffffffffffffff16815260200190815260200160002061370490919063ffffffff16565b905092915050565b611ce583838360405180602001604052806000815250612ee5565b505050565b60106020528060005260406000206000915090508060000154908060010160009054906101000a900473ffffffffffffffffffffffffffffffffffffffff16905082565b600080611d4583600261371e90919063ffffffff16565b50905080915050919050565b6000611d818260405180606001604052806029815260200161493c60299139600261374d9092919063ffffffff16565b9050919050565b606060098054600181600116156101000203166002900480601f016020809104026020016040519081016040528092919081815260200182805460018160011615610100020316600290048015611e205780601f10611df557610100808354040283529160200191611e20565b820191906000526020600020905b815481529060010190602001808311611e0357829003601f168201915b5050505050905090565b60008073ffffffffffffffffffffffffffffffffffffffff168273ffffffffffffffffffffffffffffffffffffffff161415611eb1576040517f08c379a000000000000000000000000000000000000000000000000000000000815260040180806020018281038252602a815260200180614912602a913960400191505060405180910390fd5b611ef8600160008473ffffffffffffffffffffffffffffffffffffffff1673ffffffffffffffffffffffffffffffffffffffff16815260200190815260200160002061376c565b9050919050565b600b60009054906101000a900473ffffffffffffffffffffffffffffffffffffffff1681565b606060078054600181600116156101000203166002900480601f016020809104026020016040519081016040528092919081815260200182805460018160011615610100020316600290048015611fbd5780601f10611f9257610100808354040283529160200191611fbd565b820191906000526020600020905b815481529060010190602001808311611fa057829003601f168201915b5050505050905090565b600080600a60008481526020019081526020016000209050600015158160070160009054906101000a900460ff1615151461200157600080fd5b42600182600601540282600501540110156121ec576000601060008581526020019081526020016000209050600c6000815480929190600101919050555061204b33600c54613781565b6120f3600c54836002018054600181600116156101000203166002900480601f0160208091040260200160405190810160405280929190818152602001828054600181600116156101000203166002900480156120e95780601f106120be576101008083540402835291602001916120e9565b820191906000526020600020905b8154815290600101906020018083116120cc57829003601f168201915b505050505061379f565b60018260070160006101000a81548160ff02191690831515021790555060008160000154141561212257600080fd5b8060000154600e600086815260200190815260200160002060008360010160009054906101000a900473ffffffffffffffffffffffffffffffffffffffff1673ffffffffffffffffffffffffffffffffffffffff1673ffffffffffffffffffffffffffffffffffffffff168152602001908152602001600020600082825403925050819055503373ffffffffffffffffffffffffffffffffffffffff166108fc82600001549081150290604051600060405180830381858888f193505050506121ea57600080fd5b505b7f462b6ca7f632601af1295aeb320851f50e8e630a309173f23535845ea4bfb3b960405160405180910390a18060070160009054906101000a900460ff16915050919050565b60008161223d61464b565b600a6000838152602001908152602001600020604051806101400160405290816000820160009054906101000a900473ffffffffffffffffffffffffffffffffffffffff1673ffffffffffffffffffffffffffffffffffffffff1673ffffffffffffffffffffffffffffffffffffffff16815260200160018201548152602001600282018054600181600116156101000203166002900480601f0160208091040260200160405190810160405280929190818152602001828054600181600116156101000203166002900480156123555780601f1061232a57610100808354040283529160200191612355565b820191906000526020600020905b81548152906001019060200180831161233857829003601f168201915b505050505081526020016003820160009054906101000a900460ff161515151581526020016004820154815260200160058201548152602001600682015481526020016007820160009054906101000a900460ff161515151581526020016007820160019054906101000a900460ff16151515158152602001600882018054600181600116156101000203166002900480601f0160208091040260200160405190810160405280929190818152602001828054600181600116156101000203166002900480156124665780601f1061243b57610100808354040283529160200191612466565b820191906000526020600020905b81548152906001019060200180831161244957829003601f168201915b5050505050815250509050806000015173ffffffffffffffffffffffffffffffffffffffff163373ffffffffffffffffffffffffffffffffffffffff1614156124ae57600080fd5b836124b761464b565b600a6000838152602001908152602001600020604051806101400160405290816000820160009054906101000a900473ffffffffffffffffffffffffffffffffffffffff1673ffffffffffffffffffffffffffffffffffffffff1673ffffffffffffffffffffffffffffffffffffffff16815260200160018201548152602001600282018054600181600116156101000203166002900480601f0160208091040260200160405190810160405280929190818152602001828054600181600116156101000203166002900480156125cf5780601f106125a4576101008083540402835291602001916125cf565b820191906000526020600020905b8154815290600101906020018083116125b257829003601f168201915b505050505081526020016003820160009054906101000a900460ff161515151581526020016004820154815260200160058201548152602001600682015481526020016007820160009054906101000a900460ff161515151581526020016007820160019054906101000a900460ff16151515158152602001600882018054600181600116156101000203166002900480601f0160208091040260200160405190810160405280929190818152602001828054600181600116156101000203166002900480156126e05780601f106126b5576101008083540402835291602001916126e0565b820191906000526020600020905b8154815290600101906020018083116126c357829003601f168201915b505050505081525050905080602001513410156126fc57600080fd5b600034141561270a57600080fd5b60006010600088815260200190815260200160002090506000600a60008981526020019081526020016000209050600015158160070160009054906101000a900460ff1615151461275a57600080fd5b600034600e60008b815260200190815260200160002060003373ffffffffffffffffffffffffffffffffffffffff1673ffffffffffffffffffffffffffffffffffffffff16815260200190815260200160002054019050826000015481116127c157600080fd5b6000600e60008b815260200190815260200160002060008560010160009054906101000a900473ffffffffffffffffffffffffffffffffffffffff1673ffffffffffffffffffffffffffffffffffffffff1673ffffffffffffffffffffffffffffffffffffffff16815260200190815260200160002054905081600e60008c815260200190815260200160002060003373ffffffffffffffffffffffffffffffffffffffff1673ffffffffffffffffffffffffffffffffffffffff168152602001908152602001600020819055508082116128c757808360040154830111156128b2578084600001819055506128c2565b8260040154820184600001819055505b6129e2565b8360010160009054906101000a900473ffffffffffffffffffffffffffffffffffffffff1673ffffffffffffffffffffffffffffffffffffffff163373ffffffffffffffffffffffffffffffffffffffff16146129de57338460010160006101000a81548173ffffffffffffffffffffffffffffffffffffffff021916908373ffffffffffffffffffffffffffffffffffffffff160217905550808360040154830111156129cd5760001515601160009054906101000a900460ff1615151415612999578084600001819055506129c8565b826004015483600101540184600001819055506001601160006101000a81548160ff0219169083151502179055505b6129dd565b8260040154820184600001819055505b5b8190505b600015158360070160019054906101000a900460ff1615151415612a0a573484600001819055505b7ff152f4ff5e488c55370a2d53925a55055228ebd8ec95bd0251bbb299e48786b033838660010160009054906101000a900473ffffffffffffffffffffffffffffffffffffffff16848860000154604051808673ffffffffffffffffffffffffffffffffffffffff1673ffffffffffffffffffffffffffffffffffffffff1681526020018581526020018473ffffffffffffffffffffffffffffffffffffffff1673ffffffffffffffffffffffffffffffffffffffff1681526020018381526020018281526020019550505050505060405180910390a160018360070160016101000a81548160ff021916908315150217905550600198505050505050505050919050565b612b176132f7565b73ffffffffffffffffffffffffffffffffffffffff168273ffffffffffffffffffffffffffffffffffffffff161415612bb8576040517f08c379a00000000000000000000000000000000000000000000000000000000081526004018080602001828103825260198152602001807f4552433732313a20617070726f766520746f2063616c6c65720000000000000081525060200191505060405180910390fd5b8060056000612bc56132f7565b73ffffffffffffffffffffffffffffffffffffffff1673ffffffffffffffffffffffffffffffffffffffff16815260200190815260200160002060008473ffffffffffffffffffffffffffffffffffffffff1673ffffffffffffffffffffffffffffffffffffffff16815260200190815260200160002060006101000a81548160ff0219169083151502179055508173ffffffffffffffffffffffffffffffffffffffff16612c726132f7565b73ffffffffffffffffffffffffffffffffffffffff167f17307eab39ab6107e8899845ad3d59bd9653f200f220920489ca2b5937696c3183604051808215151515815260200191505060405180910390a35050565b6000851015612d3e576040517f08c379a000000000000000000000000000000000000000000000000000000000815260040180806020018281038252601c8152602001807f50726963652063616e6e6f74206265206c65737373207468616e20300000000081525060200191505060405180910390fd5b600d600081548092919060010191905055506040518061014001604052803373ffffffffffffffffffffffffffffffffffffffff16815260200186815260200185815260200160011515815260200184815260200142815260200183815260200160001515815260200160001515815260200182815250600a6000600d54815260200190815260200160002060008201518160000160006101000a81548173ffffffffffffffffffffffffffffffffffffffff021916908373ffffffffffffffffffffffffffffffffffffffff160217905550602082015181600101556040820151816002019080519060200190612e379291906146ea565b5060608201518160030160006101000a81548160ff0219169083151502179055506080820151816004015560a0820151816005015560c0820151816006015560e08201518160070160006101000a81548160ff0219169083151502179055506101008201518160070160016101000a81548160ff021916908315150217905550610120820151816008019080519060200190612ed49291906146ea565b509050505050505050565b600c5481565b612ef6612ef06132f7565b836133cd565b612f4b576040517f08c379a0000000000000000000000000000000000000000000000000000000008152600401808060200182810382526031815260200180614a586031913960400191505060405180910390fd5b612f5784848484613829565b50505050565b6060612f68826132da565b612fbd576040517f08c379a000000000000000000000000000000000000000000000000000000000815260040180806020018281038252602f815260200180614a08602f913960400191505060405180910390fd5b6060600860008481526020019081526020016000208054600181600116156101000203166002900480601f0160208091040260200160405190810160405280929190818152602001828054600181600116156101000203166002900480156130665780601f1061303b57610100808354040283529160200191613066565b820191906000526020600020905b81548152906001019060200180831161304957829003601f168201915b505050505090506000600980546001816001161561010002031660029004905014156130955780915050613241565b60008151111561316e5760098160405160200180838054600181600116156101000203166002900480156131005780601f106130de576101008083540402835291820191613100565b820191906000526020600020905b8154815290600101906020018083116130ec575b505082805190602001908083835b60208310613131578051825260208201915060208101905060208303925061310e565b6001836020036101000a03801982511681845116808217855250505050505090500192505050604051602081830303815290604052915050613241565b60096131798461389b565b60405160200180838054600181600116156101000203166002900480156131d75780601f106131b55761010080835404028352918201916131d7565b820191906000526020600020905b8154815290600101906020018083116131c3575b505082805190602001908083835b6020831061320857805182526020820191506020810190506020830392506131e5565b6001836020036101000a038019825116818451168082178552505050505050905001925050506040516020818303038152906040529150505b919050565b6000600560008473ffffffffffffffffffffffffffffffffffffffff1673ffffffffffffffffffffffffffffffffffffffff16815260200190815260200160002060008373ffffffffffffffffffffffffffffffffffffffff1673ffffffffffffffffffffffffffffffffffffffff16815260200190815260200160002060009054906101000a900460ff16905092915050565b60006132f08260026139cb90919063ffffffff16565b9050919050565b600033905090565b816004600083815260200190815260200160002060006101000a81548173ffffffffffffffffffffffffffffffffffffffff021916908373ffffffffffffffffffffffffffffffffffffffff160217905550808273ffffffffffffffffffffffffffffffffffffffff1661337283611d51565b73ffffffffffffffffffffffffffffffffffffffff167f8c5be1e5ebec7d5bd14f71427d1e84f3dd0314c0f7b2291e5b200ac8c7c3b92560405160405180910390a45050565b60006133c6826000016139e5565b9050919050565b60006133d8826132da565b61342d576040517f08c379a000000000000000000000000000000000000000000000000000000000815260040180806020018281038252602c8152602001806148ae602c913960400191505060405180910390fd5b600061343883611d51565b90508073ffffffffffffffffffffffffffffffffffffffff168473ffffffffffffffffffffffffffffffffffffffff1614806134a757508373ffffffffffffffffffffffffffffffffffffffff1661348f8461107b565b73ffffffffffffffffffffffffffffffffffffffff16145b806134b857506134b78185613246565b5b91505092915050565b8273ffffffffffffffffffffffffffffffffffffffff166134e182611d51565b73ffffffffffffffffffffffffffffffffffffffff161461354d576040517f08c379a00000000000000000000000000000000000000000000000000000000081526004018080602001828103825260298152602001806149df6029913960400191505060405180910390fd5b600073ffffffffffffffffffffffffffffffffffffffff168273ffffffffffffffffffffffffffffffffffffffff1614156135d3576040517f08c379a00000000000000000000000000000000000000000000000000000000081526004018080602001828103825260248152602001806148646024913960400191505060405180910390fd5b6135de8383836139f6565b6135e96000826132ff565b61363a81600160008673ffffffffffffffffffffffffffffffffffffffff1673ffffffffffffffffffffffffffffffffffffffff1681526020019081526020016000206139fb90919063ffffffff16565b5061368c81600160008573ffffffffffffffffffffffffffffffffffffffff1673ffffffffffffffffffffffffffffffffffffffff168152602001908152602001600020613a1590919063ffffffff16565b506136a381836002613a2f9092919063ffffffff16565b50808273ffffffffffffffffffffffffffffffffffffffff168473ffffffffffffffffffffffffffffffffffffffff167fddf252ad1be2c89b69c2b068fc378daa952ba7f163c4a11628f55a4df523b3ef60405160405180910390a4505050565b60006137138360000183613a64565b60001c905092915050565b6000806000806137318660000186613ae7565b915091508160001c8160001c8090509350935050509250929050565b6000613760846000018460001b84613b80565b60001c90509392505050565b600061377a82600001613c76565b9050919050565b61379b828260405180602001604052806000815250613c87565b5050565b6137a8826132da565b6137fd576040517f08c379a000000000000000000000000000000000000000000000000000000000815260040180806020018281038252602c8152602001806149b3602c913960400191505060405180910390fd5b8060086000848152602001908152602001600020908051906020019061382492919061476a565b505050565b6138348484846134c1565b61384084848484613cf8565b613895576040517f08c379a00000000000000000000000000000000000000000000000000000000081526004018080602001828103825260328152602001806148326032913960400191505060405180910390fd5b50505050565b606060008214156138e3576040518060400160405280600181526020017f300000000000000000000000000000000000000000000000000000000000000081525090506139c6565b600082905060005b6000821461390d578080600101915050600a828161390557fe5b0491506138eb565b6060816040519080825280601f01601f1916602001820160405280156139425781602001600182028036833780820191505090505b50905060006001830390508593505b600084146139be57600a848161396357fe5b0660300160f81b8282806001900393508151811061397d57fe5b60200101907effffffffffffffffffffffffffffffffffffffffffffffffffffffffffffff1916908160001a905350600a84816139b657fe5b049350613951565b819450505050505b919050565b60006139dd836000018360001b613f3d565b905092915050565b600081600001805490509050919050565b505050565b6000613a0d836000018360001b613f60565b905092915050565b6000613a27836000018360001b614048565b905092915050565b6000613a5b846000018460001b8473ffffffffffffffffffffffffffffffffffffffff1660001b6140b8565b90509392505050565b600081836000018054905011613ac5576040517f08c379a00000000000000000000000000000000000000000000000000000000081526004018080602001828103825260228152602001806148106022913960400191505060405180910390fd5b826000018281548110613ad457fe5b9060005260206000200154905092915050565b60008082846000018054905011613b49576040517f08c379a00000000000000000000000000000000000000000000000000000000081526004018080602001828103825260228152602001806149656022913960400191505060405180910390fd5b6000846000018481548110613b5a57fe5b906000526020600020906002020190508060000154816001015492509250509250929050565b60008084600101600085815260200190815260200160002054905060008114158390613c47576040517f08c379a00000000000000000000000000000000000000000000000000000000081526004018080602001828103825283818151815260200191508051906020019080838360005b83811015613c0c578082015181840152602081019050613bf1565b50505050905090810190601f168015613c395780820380516001836020036101000a031916815260200191505b509250505060405180910390fd5b50846000016001820381548110613c5a57fe5b9060005260206000209060020201600101549150509392505050565b600081600001805490509050919050565b613c918383614194565b613c9e6000848484613cf8565b613cf3576040517f08c379a00000000000000000000000000000000000000000000000000000000081526004018080602001828103825260328152602001806148326032913960400191505060405180910390fd5b505050565b6000613d198473ffffffffffffffffffffffffffffffffffffffff16614388565b613d265760019050613f35565b6060613ebc63150b7a0260e01b613d3b6132f7565b888787604051602401808573ffffffffffffffffffffffffffffffffffffffff1673ffffffffffffffffffffffffffffffffffffffff1681526020018473ffffffffffffffffffffffffffffffffffffffff1673ffffffffffffffffffffffffffffffffffffffff16815260200183815260200180602001828103825283818151815260200191508051906020019080838360005b83811015613deb578082015181840152602081019050613dd0565b50505050905090810190601f168015613e185780820380516001836020036101000a031916815260200191505b5095505050505050604051602081830303815290604052907bffffffffffffffffffffffffffffffffffffffffffffffffffffffff19166020820180517bffffffffffffffffffffffffffffffffffffffffffffffffffffffff8381831617835250505050604051806060016040528060328152602001614832603291398773ffffffffffffffffffffffffffffffffffffffff1661439b9092919063ffffffff16565b90506000818060200190516020811015613ed557600080fd5b8101908080519060200190929190505050905063150b7a0260e01b7bffffffffffffffffffffffffffffffffffffffffffffffffffffffff1916817bffffffffffffffffffffffffffffffffffffffffffffffffffffffff191614925050505b949350505050565b600080836001016000848152602001908152602001600020541415905092915050565b6000808360010160008481526020019081526020016000205490506000811461403c5760006001820390506000600186600001805490500390506000866000018281548110613fab57fe5b9060005260206000200154905080876000018481548110613fc857fe5b906000526020600020018190555060018301876001016000838152602001908152602001600020819055508660000180548061400057fe5b60019003818190600052602060002001600090559055866001016000878152602001908152602001600020600090556001945050505050614042565b60009150505b92915050565b600061405483836143b3565b6140ad5782600001829080600181540180825580915050600190039060005260206000200160009091909190915055826000018054905083600101600084815260200190815260200160002081905550600190506140b2565b600090505b92915050565b600080846001016000858152602001908152602001600020549050600081141561415f5784600001604051806040016040528086815260200185815250908060018154018082558091505060019003906000526020600020906002020160009091909190915060008201518160000155602082015181600101555050846000018054905085600101600086815260200190815260200160002081905550600191505061418d565b8285600001600183038154811061417257fe5b90600052602060002090600202016001018190555060009150505b9392505050565b600073ffffffffffffffffffffffffffffffffffffffff168273ffffffffffffffffffffffffffffffffffffffff161415614237576040517f08c379a00000000000000000000000000000000000000000000000000000000081526004018080602001828103825260208152602001807f4552433732313a206d696e7420746f20746865207a65726f206164647265737381525060200191505060405180910390fd5b614240816132da565b156142b3576040517f08c379a000000000000000000000000000000000000000000000000000000000815260040180806020018281038252601c8152602001807f4552433732313a20746f6b656e20616c7265616479206d696e7465640000000081525060200191505060405180910390fd5b6142bf600083836139f6565b61431081600160008573ffffffffffffffffffffffffffffffffffffffff1673ffffffffffffffffffffffffffffffffffffffff168152602001908152602001600020613a1590919063ffffffff16565b5061432781836002613a2f9092919063ffffffff16565b50808273ffffffffffffffffffffffffffffffffffffffff16600073ffffffffffffffffffffffffffffffffffffffff167fddf252ad1be2c89b69c2b068fc378daa952ba7f163c4a11628f55a4df523b3ef60405160405180910390a45050565b600080823b905060008111915050919050565b60606143aa84846000856143d6565b90509392505050565b600080836001016000848152602001908152602001600020541415905092915050565b606082471015614431576040517f08c379a00000000000000000000000000000000000000000000000000000000081526004018080602001828103825260268152602001806148886026913960400191505060405180910390fd5b61443a85614388565b6144ac576040517f08c379a000000000000000000000000000000000000000000000000000000000815260040180806020018281038252601d8152602001807f416464726573733a2063616c6c20746f206e6f6e2d636f6e747261637400000081525060200191505060405180910390fd5b600060608673ffffffffffffffffffffffffffffffffffffffff1685876040518082805190602001908083835b602083106144fc57805182526020820191506020810190506020830392506144d9565b6001836020036101000a03801982511681845116808217855250505050505090500191505060006040518083038185875af1925050503d806000811461455e576040519150601f19603f3d011682016040523d82523d6000602084013e614563565b606091505b509150915061457382828661457f565b92505050949350505050565b6060831561458f57829050614644565b6000835111156145a25782518084602001fd5b816040517f08c379a00000000000000000000000000000000000000000000000000000000081526004018080602001828103825283818151815260200191508051906020019080838360005b838110156146095780820151818401526020810190506145ee565b50505050905090810190601f1680156146365780820380516001836020036101000a031916815260200191505b509250505060405180910390fd5b9392505050565b604051806101400160405280600073ffffffffffffffffffffffffffffffffffffffff1681526020016000815260200160608152602001600015158152602001600081526020016000815260200160008152602001600015158152602001600015158152602001606081525090565b604051806040016040528060008152602001600073ffffffffffffffffffffffffffffffffffffffff1681525090565b828054600181600116156101000203166002900490600052602060002090601f016020900481019282601f1061472b57805160ff1916838001178555614759565b82800160010185558215614759579182015b8281111561475857825182559160200191906001019061473d565b5b50905061476691906147ea565b5090565b828054600181600116156101000203166002900490600052602060002090601f016020900481019282601f106147ab57805160ff19168380011785556147d9565b828001600101855582156147d9579182015b828111156147d85782518255916020019190600101906147bd565b5b5090506147e691906147ea565b5090565b61480c91905b808211156148085760008160009055506001016147f0565b5090565b9056fe456e756d657261626c655365743a20696e646578206f7574206f6620626f756e64734552433732313a207472616e7366657220746f206e6f6e20455243373231526563656976657220696d706c656d656e7465724552433732313a207472616e7366657220746f20746865207a65726f2061646472657373416464726573733a20696e73756666696369656e742062616c616e636520666f722063616c6c4552433732313a206f70657261746f7220717565727920666f72206e6f6e6578697374656e7420746f6b656e4552433732313a20617070726f76652063616c6c6572206973206e6f74206f776e6572206e6f7220617070726f76656420666f7220616c6c4552433732313a2062616c616e636520717565727920666f7220746865207a65726f20616464726573734552433732313a206f776e657220717565727920666f72206e6f6e6578697374656e7420746f6b656e456e756d657261626c654d61703a20696e646578206f7574206f6620626f756e64734552433732313a20617070726f76656420717565727920666f72206e6f6e6578697374656e7420746f6b656e4552433732314d657461646174613a2055524920736574206f66206e6f6e6578697374656e7420746f6b656e4552433732313a207472616e73666572206f6620746f6b656e2074686174206973206e6f74206f776e4552433732314d657461646174613a2055524920717565727920666f72206e6f6e6578697374656e7420746f6b656e4552433732313a20617070726f76616c20746f2063757272656e74206f776e65724552433732313a207472616e736665722063616c6c6572206973206e6f74206f776e6572206e6f7220617070726f766564a2646970667358221220e71ffcec19f6121e838087d26f787a91885329d313ce0f8d16dcccab116e69f364736f6c63430006030033",
  "source": "pragma solidity ^0.6.3;\n\nimport \"@openzeppelin/contracts/token/ERC721/ERC721.sol\";\nimport \"@openzeppelin/contracts/math/SafeMath.sol\";\ncontract ArtAuction is ERC721 {\n   \n  using SafeMath for uint256;  //For Future use\n\n  //Note: Token is minted after it is sold or after auction ends\n \n  //variables that remain static or connstant\n   mapping(uint256 => ArtItem) private _artItems;  //Map id to ArtItem\n  address public owner;   //owner\n  //variables that are dynamic or change\n  uint256 public _tokenIds;  \n  //Unique Image ID that are tokenized\n  uint256 public _artItemIds;\n  //Unique ID up images for sale but not tokenized\n \n  mapping(uint256=>mapping(address => uint256)) public fundsByBidder;\n  //map _artItemIds to fundsByBidder\n  mapping(int256=>uint256) token; //Map tokenIds to _artItemIds so as to connect to struct.\n  mapping(uint256=>bidding) public bid;  //mapping tokenid to bidding\n  bool firsttime = false;  //to mart first successfull bid\n\n   //Events\n    event LogBid(address bidder, uint bid, address highestBidder, uint highestBid, uint highestBindingBid);  \n    event LogWithdrawal(address withdrawer, address withdrawalAccount, uint amount);\n    event LogCanceled();\n\n  //Art Item\n  struct ArtItem {\n        address payable seller; //address of seller\n        uint256 minbid; //minimum price by artist\n        string tokenURI;  //IPFS URL\n        bool exists;    //token by id exists or not\n        uint bidIncrement; //incremention of bid\n        uint time;\n        uint timePeriod;\n        bool cancelled;\n        bool auctionstarted;\n        string name;\n    }\n   \n    struct bidding{\n     uint highestBindingBid; //highestBindingBid of the tokenid\n     address payable highestBidder;\n    }\n\n\n  constructor() public ERC721(\"DART\", \"ART\")  //Initializing ERC721\n  {  \n    owner=msg.sender;\n  }\n \n   //modifiers\n \n  modifier artItemExist(uint256 id) {   //check if item exists\n        require(_artItems[id].exists, \"Not Found\");\n        _;\n    }\n   \n    modifier onlyNotOwner(uint256 id) {            //Check if owner is calling\n      ArtItem memory artItem = _artItems[id];  \n      if (msg.sender == artItem.seller) revert();\n    _;\n     }\n\n    modifier onlyOwner(uint256 id)\n     {\n        ArtItem memory artItem = _artItems[id];  \n        if (msg.sender != artItem.seller) revert();\n         _;\n     }\n     \n    modifier minbid(uint256 id)\n    {\n        ArtItem memory artItem = _artItems[id];\n        if(msg.value<artItem.minbid) revert();\n        _;\n    }\n\n  function addArtItem(uint256 price, string memory tokenURI, uint _bidincrement, uint timePeriod, string memory name) public {\n        require(price >= 0, \"Price cannot be lesss than 0\");\n\n        _artItemIds++;\n   \n        _artItems[_artItemIds] = ArtItem(msg.sender, price, tokenURI, true, _bidincrement, now, timePeriod,false,false,name);\n    }\n\n       \n\n  function getArtItem(uint256 id)   //get art item info\n        public\n        view\n        artItemExist(id)\n        returns (\n            uint256,\n            uint256,\n            string memory,\n            uint,\n            uint,\n            uint,\n            bool,\n            string memory,\n            address payable\n        )\n    {\n        ArtItem memory artItem = _artItems[id];\n        bidding memory bid = bid[id];\n        return (id, artItem.minbid, artItem.tokenURI, bid.highestBindingBid,artItem.time,artItem.timePeriod,artItem.cancelled,artItem.name,artItem.seller);\n    }\n   \n    //auction functions :\n   \n    //Cancel auction\n    function cancelAuction(uint256 id) public payable\n    returns (bool success)\n   {\n   \n    ArtItem storage artItem = _artItems[id];  \n    require(artItem.cancelled==false);\n    if((artItem.time + (artItem.timePeriod * 1 seconds) < now))  //mint token if auctionstarted\n    {\n    bidding storage bid = bid[id];\n    _tokenIds++;\n    //token[_tokenIds] = _artItemIds;\n    _safeMint(msg.sender, _tokenIds);\n    _setTokenURI(_tokenIds, artItem.tokenURI);\n    artItem.cancelled=true;\n     // the auction's owner should be allowed to withdraw the highestBindingBid\n   \n    if (bid.highestBindingBid == 0) revert();\n    fundsByBidder[id][bid.highestBidder] -= bid.highestBindingBid;\n    // send the funds\n    if (!msg.sender.send(bid.highestBindingBid)) revert();\n        }\n       \n   \n    LogCanceled();\n    return artItem.cancelled;    \n   }\n   \n   function placeBid(uint256 id) public\n    payable\n    onlyNotOwner(id)\n    minbid(id)\n   \n    returns (bool success)\n{  \n\n    // reject payments of 0 ETH\n    if (msg.value == 0) revert();\n   \n    // calculate the user's total bid based on the current amount they've sent to the contract\n    // plus whatever has been sent with this transaction\n    bidding storage bid = bid[id];\n    ArtItem storage artItem = _artItems[id];  \n   \n    require(artItem.cancelled==false);\n \n    uint newBid = fundsByBidder[id][msg.sender] + msg.value;\n\n    // if the user isn't even willing to overbid the highest binding bid, there's nothing for us\n    // to do except revert the transaction.\n    if (newBid <= bid.highestBindingBid) revert();\n\n    // grab the previous highest bid (before updating fundsByBidder, in case msg.sender is the\n    // highestBidder and is just increasing their maximum bid).\n    uint highestBid = fundsByBidder[id][bid.highestBidder];\n\n    fundsByBidder[id][msg.sender] = newBid;\n\n    if (newBid <= highestBid) {\n        // if the user has overbid the highestBindingBid but not the highestBid, we simply\n        // increase the highestBindingBid and leave highestBidder alone.\n\n        // note that this case is impossible if msg.sender == highestBidder because you can never\n        // bid less ETH than you already have.\n        if(newBid+artItem.bidIncrement> highestBid)\n        {\n            bid.highestBindingBid = highestBid;\n        }\n        else\n        {\n            bid.highestBindingBid = newBid+artItem.bidIncrement;\n        }\n    } else {\n        // if msg.sender is already the highest bidder, they must simply be wanting to raise\n        // their maximum bid, in which case we shouldn't increase the highestBindingBid.\n\n        // if the user is NOT highestBidder, and has overbid highestBid completely, we set them\n        // as the new highestBidder and recalculate highestBindingBid.\n\n        if (msg.sender != bid.highestBidder) {\n            bid.highestBidder = msg.sender;\n        if(newBid+artItem.bidIncrement> highestBid)\n        {   if(firsttime==false)\n            bid.highestBindingBid = highestBid;\n            else\n            {bid.highestBindingBid = artItem.minbid + artItem.bidIncrement;\n            firsttime=true;\n            }\n        }\n        else\n        {\n            bid.highestBindingBid = newBid+artItem.bidIncrement;\n        }\n        }\n        highestBid = newBid;\n    }\n    if(artItem.auctionstarted==false)\n    {\n        bid.highestBindingBid = msg.value;\n    }\n    LogBid(msg.sender, newBid, bid.highestBidder, highestBid, bid.highestBindingBid);\n    artItem.auctionstarted = true;\n    return true;\n    }\n   \n    function withdraw(uint256 id) public payable onlyNotOwner(id)\n    returns (bool success)\n{  \n    require(_artItems[id].cancelled==true);\n    require(_artItems[id].auctionstarted==true);\n    address payable withdrawalAccount;\n    uint withdrawalAmount;\n    bidding storage bid = bid[id];\n   \n        if (msg.sender == bid.highestBidder) {\n            // the highest bidder should only be allowed to withdraw the difference between their\n            // highest bid and the highestBindingBid\n            withdrawalAccount = bid.highestBidder;\n            withdrawalAmount = fundsByBidder[id][bid.highestBidder];\n        }\n        else {\n            // anyone who participated but did not win the auction should be allowed to withdraw\n            // the full amount of their funds\n            withdrawalAccount = msg.sender;\n            withdrawalAmount = fundsByBidder[id][withdrawalAccount];\n        }\n\n    if (withdrawalAmount == 0) revert();\n\n    fundsByBidder[id][withdrawalAccount] -= withdrawalAmount;\n\n    // send the funds\n    if (!msg.sender.send(withdrawalAmount)) revert();\n\n    LogWithdrawal(msg.sender, withdrawalAccount, withdrawalAmount);\n\n    return true;\n}\n       \n}\n\n",
  "sourcePath": "/home/ciberexplosion/Desktop/NFT-Auction-Marketplace/src/contracts/ArtAuction.sol",
  "compiler": {
    "name": "solc",
    "version": "0.6.3+commit.8dda9521.Emscripten.clang"
  },
  "schemaVersion": "3.3.4",
  "updatedAt": "2021-02-20T19:18:40.690Z",
  "devdoc": {
    "methods": {
      "approve(address,uint256)": {
        "details": "See {IERC721-approve}."
      },
      "balanceOf(address)": {
        "details": "See {IERC721-balanceOf}."
      },
      "baseURI()": {
        "details": "Returns the base URI set via {_setBaseURI}. This will be automatically added as a prefix in {tokenURI} to each token's URI, or to the token ID if no specific URI is set for that token ID."
      },
      "getApproved(uint256)": {
        "details": "See {IERC721-getApproved}."
      },
      "isApprovedForAll(address,address)": {
        "details": "See {IERC721-isApprovedForAll}."
      },
      "name()": {
        "details": "See {IERC721Metadata-name}."
      },
      "ownerOf(uint256)": {
        "details": "See {IERC721-ownerOf}."
      },
      "safeTransferFrom(address,address,uint256)": {
        "details": "See {IERC721-safeTransferFrom}."
      },
      "safeTransferFrom(address,address,uint256,bytes)": {
        "details": "See {IERC721-safeTransferFrom}."
      },
      "setApprovalForAll(address,bool)": {
        "details": "See {IERC721-setApprovalForAll}."
      },
      "supportsInterface(bytes4)": {
        "details": "See {IERC165-supportsInterface}.     * Time complexity O(1), guaranteed to always use less than 30 000 gas."
      },
      "symbol()": {
        "details": "See {IERC721Metadata-symbol}."
      },
      "tokenByIndex(uint256)": {
        "details": "See {IERC721Enumerable-tokenByIndex}."
      },
      "tokenOfOwnerByIndex(address,uint256)": {
        "details": "See {IERC721Enumerable-tokenOfOwnerByIndex}."
      },
      "tokenURI(uint256)": {
        "details": "See {IERC721Metadata-tokenURI}."
      },
      "totalSupply()": {
        "details": "See {IERC721Enumerable-totalSupply}."
      },
      "transferFrom(address,address,uint256)": {
        "details": "See {IERC721-transferFrom}."
      }
    }
  },
  "userdoc": {
    "methods": {}
  }
}