{
  "contractName": "ArtAuction",
  "abi": [
    {
      "inputs": [],
      "stateMutability": "nonpayable",
      "type": "constructor"
    },
    {
      "anonymous": false,
      "inputs": [
        {
          "indexed": true,
          "internalType": "address",
          "name": "owner",
          "type": "address"
        },
        {
          "indexed": true,
          "internalType": "address",
          "name": "approved",
          "type": "address"
        },
        {
          "indexed": true,
          "internalType": "uint256",
          "name": "tokenId",
          "type": "uint256"
        }
      ],
      "name": "Approval",
      "type": "event"
    },
    {
      "anonymous": false,
      "inputs": [
        {
          "indexed": true,
          "internalType": "address",
          "name": "owner",
          "type": "address"
        },
        {
          "indexed": true,
          "internalType": "address",
          "name": "operator",
          "type": "address"
        },
        {
          "indexed": false,
          "internalType": "bool",
          "name": "approved",
          "type": "bool"
        }
      ],
      "name": "ApprovalForAll",
      "type": "event"
    },
    {
      "anonymous": false,
      "inputs": [
        {
          "indexed": false,
          "internalType": "uint256",
          "name": "_artItemIds",
          "type": "uint256"
        },
        {
          "indexed": false,
          "internalType": "string",
          "name": "name",
          "type": "string"
        },
        {
          "indexed": true,
          "internalType": "address payable",
          "name": "seller",
          "type": "address"
        },
        {
          "indexed": false,
          "internalType": "uint256",
          "name": "price",
          "type": "uint256"
        },
        {
          "indexed": false,
          "internalType": "uint256",
          "name": "nowTime",
          "type": "uint256"
        },
        {
          "indexed": false,
          "internalType": "uint256",
          "name": "timePeriod",
          "type": "uint256"
        }
      ],
      "name": "LogAddItem",
      "type": "event"
    },
    {
      "anonymous": false,
      "inputs": [
        {
          "indexed": true,
          "internalType": "address",
          "name": "bidder",
          "type": "address"
        },
        {
          "indexed": true,
          "internalType": "uint256",
          "name": "artItemId",
          "type": "uint256"
        },
        {
          "indexed": false,
          "internalType": "uint256",
          "name": "bid",
          "type": "uint256"
        },
        {
          "indexed": true,
          "internalType": "address",
          "name": "highestBidder",
          "type": "address"
        },
        {
          "indexed": false,
          "internalType": "uint256",
          "name": "highestBid",
          "type": "uint256"
        },
        {
          "indexed": false,
          "internalType": "uint256",
          "name": "highestBindingBid",
          "type": "uint256"
        }
      ],
      "name": "LogBid",
      "type": "event"
    },
    {
      "anonymous": false,
      "inputs": [],
      "name": "LogCanceled",
      "type": "event"
    },
    {
      "anonymous": false,
      "inputs": [
        {
          "indexed": true,
          "internalType": "address",
          "name": "withdrawer",
          "type": "address"
        },
        {
          "indexed": true,
          "internalType": "address",
          "name": "withdrawalAccount",
          "type": "address"
        },
        {
          "indexed": false,
          "internalType": "uint256",
          "name": "amount",
          "type": "uint256"
        }
      ],
      "name": "LogWithdrawal",
      "type": "event"
    },
    {
      "anonymous": false,
      "inputs": [
        {
          "indexed": true,
          "internalType": "address",
          "name": "from",
          "type": "address"
        },
        {
          "indexed": true,
          "internalType": "address",
          "name": "to",
          "type": "address"
        },
        {
          "indexed": true,
          "internalType": "uint256",
          "name": "tokenId",
          "type": "uint256"
        }
      ],
      "name": "Transfer",
      "type": "event"
    },
    {
      "inputs": [],
      "name": "_artItemIds",
      "outputs": [
        {
          "internalType": "uint256",
          "name": "",
          "type": "uint256"
        }
      ],
      "stateMutability": "view",
      "type": "function",
      "constant": true
    },
    {
      "inputs": [],
      "name": "_tokenIds",
      "outputs": [
        {
          "internalType": "uint256",
          "name": "",
          "type": "uint256"
        }
      ],
      "stateMutability": "view",
      "type": "function",
      "constant": true
    },
    {
      "inputs": [
        {
          "internalType": "address",
          "name": "to",
          "type": "address"
        },
        {
          "internalType": "uint256",
          "name": "tokenId",
          "type": "uint256"
        }
      ],
      "name": "approve",
      "outputs": [],
      "stateMutability": "nonpayable",
      "type": "function"
    },
    {
      "inputs": [
        {
          "internalType": "address",
          "name": "owner",
          "type": "address"
        }
      ],
      "name": "balanceOf",
      "outputs": [
        {
          "internalType": "uint256",
          "name": "",
          "type": "uint256"
        }
      ],
      "stateMutability": "view",
      "type": "function",
      "constant": true
    },
    {
      "inputs": [],
      "name": "baseURI",
      "outputs": [
        {
          "internalType": "string",
          "name": "",
          "type": "string"
        }
      ],
      "stateMutability": "view",
      "type": "function",
      "constant": true
    },
    {
      "inputs": [
        {
          "internalType": "uint256",
          "name": "",
          "type": "uint256"
        }
      ],
      "name": "bid",
      "outputs": [
        {
          "internalType": "uint256",
          "name": "highestBindingBid",
          "type": "uint256"
        },
        {
          "internalType": "address payable",
          "name": "highestBidder",
          "type": "address"
        }
      ],
      "stateMutability": "view",
      "type": "function",
      "constant": true
    },
    {
      "inputs": [
        {
          "internalType": "uint256",
          "name": "",
          "type": "uint256"
        },
        {
          "internalType": "address",
          "name": "",
          "type": "address"
        }
      ],
      "name": "fundsByBidder",
      "outputs": [
        {
          "internalType": "uint256",
          "name": "",
          "type": "uint256"
        }
      ],
      "stateMutability": "view",
      "type": "function",
      "constant": true
    },
    {
      "inputs": [
        {
          "internalType": "uint256",
          "name": "tokenId",
          "type": "uint256"
        }
      ],
      "name": "getApproved",
      "outputs": [
        {
          "internalType": "address",
          "name": "",
          "type": "address"
        }
      ],
      "stateMutability": "view",
      "type": "function",
      "constant": true
    },
    {
      "inputs": [
        {
          "internalType": "address",
          "name": "owner",
          "type": "address"
        },
        {
          "internalType": "address",
          "name": "operator",
          "type": "address"
        }
      ],
      "name": "isApprovedForAll",
      "outputs": [
        {
          "internalType": "bool",
          "name": "",
          "type": "bool"
        }
      ],
      "stateMutability": "view",
      "type": "function",
      "constant": true
    },
    {
      "inputs": [],
      "name": "name",
      "outputs": [
        {
          "internalType": "string",
          "name": "",
          "type": "string"
        }
      ],
      "stateMutability": "view",
      "type": "function",
      "constant": true
    },
    {
      "inputs": [],
      "name": "owner",
      "outputs": [
        {
          "internalType": "address",
          "name": "",
          "type": "address"
        }
      ],
      "stateMutability": "view",
      "type": "function",
      "constant": true
    },
    {
      "inputs": [
        {
          "internalType": "uint256",
          "name": "tokenId",
          "type": "uint256"
        }
      ],
      "name": "ownerOf",
      "outputs": [
        {
          "internalType": "address",
          "name": "",
          "type": "address"
        }
      ],
      "stateMutability": "view",
      "type": "function",
      "constant": true
    },
    {
      "inputs": [
        {
          "internalType": "address",
          "name": "from",
          "type": "address"
        },
        {
          "internalType": "address",
          "name": "to",
          "type": "address"
        },
        {
          "internalType": "uint256",
          "name": "tokenId",
          "type": "uint256"
        }
      ],
      "name": "safeTransferFrom",
      "outputs": [],
      "stateMutability": "nonpayable",
      "type": "function"
    },
    {
      "inputs": [
        {
          "internalType": "address",
          "name": "from",
          "type": "address"
        },
        {
          "internalType": "address",
          "name": "to",
          "type": "address"
        },
        {
          "internalType": "uint256",
          "name": "tokenId",
          "type": "uint256"
        },
        {
          "internalType": "bytes",
          "name": "_data",
          "type": "bytes"
        }
      ],
      "name": "safeTransferFrom",
      "outputs": [],
      "stateMutability": "nonpayable",
      "type": "function"
    },
    {
      "inputs": [
        {
          "internalType": "address",
          "name": "operator",
          "type": "address"
        },
        {
          "internalType": "bool",
          "name": "approved",
          "type": "bool"
        }
      ],
      "name": "setApprovalForAll",
      "outputs": [],
      "stateMutability": "nonpayable",
      "type": "function"
    },
    {
      "inputs": [
        {
          "internalType": "bytes4",
          "name": "interfaceId",
          "type": "bytes4"
        }
      ],
      "name": "supportsInterface",
      "outputs": [
        {
          "internalType": "bool",
          "name": "",
          "type": "bool"
        }
      ],
      "stateMutability": "view",
      "type": "function",
      "constant": true
    },
    {
      "inputs": [],
      "name": "symbol",
      "outputs": [
        {
          "internalType": "string",
          "name": "",
          "type": "string"
        }
      ],
      "stateMutability": "view",
      "type": "function",
      "constant": true
    },
    {
      "inputs": [
        {
          "internalType": "uint256",
          "name": "index",
          "type": "uint256"
        }
      ],
      "name": "tokenByIndex",
      "outputs": [
        {
          "internalType": "uint256",
          "name": "",
          "type": "uint256"
        }
      ],
      "stateMutability": "view",
      "type": "function",
      "constant": true
    },
    {
      "inputs": [
        {
          "internalType": "address",
          "name": "owner",
          "type": "address"
        },
        {
          "internalType": "uint256",
          "name": "index",
          "type": "uint256"
        }
      ],
      "name": "tokenOfOwnerByIndex",
      "outputs": [
        {
          "internalType": "uint256",
          "name": "",
          "type": "uint256"
        }
      ],
      "stateMutability": "view",
      "type": "function",
      "constant": true
    },
    {
      "inputs": [
        {
          "internalType": "uint256",
          "name": "tokenId",
          "type": "uint256"
        }
      ],
      "name": "tokenURI",
      "outputs": [
        {
          "internalType": "string",
          "name": "",
          "type": "string"
        }
      ],
      "stateMutability": "view",
      "type": "function",
      "constant": true
    },
    {
      "inputs": [],
      "name": "totalSupply",
      "outputs": [
        {
          "internalType": "uint256",
          "name": "",
          "type": "uint256"
        }
      ],
      "stateMutability": "view",
      "type": "function",
      "constant": true
    },
    {
      "inputs": [
        {
          "internalType": "address",
          "name": "from",
          "type": "address"
        },
        {
          "internalType": "address",
          "name": "to",
          "type": "address"
        },
        {
          "internalType": "uint256",
          "name": "tokenId",
          "type": "uint256"
        }
      ],
      "name": "transferFrom",
      "outputs": [],
      "stateMutability": "nonpayable",
      "type": "function"
    },
    {
      "inputs": [
        {
          "internalType": "uint256",
          "name": "price",
          "type": "uint256"
        },
        {
          "internalType": "string",
          "name": "tokenURI",
          "type": "string"
        },
        {
          "internalType": "uint256",
          "name": "_bidincrement",
          "type": "uint256"
        },
        {
          "internalType": "uint256",
          "name": "timePeriod",
          "type": "uint256"
        },
        {
          "internalType": "string",
          "name": "name",
          "type": "string"
        }
      ],
      "name": "addArtItem",
      "outputs": [],
      "stateMutability": "nonpayable",
      "type": "function"
    },
    {
      "inputs": [
        {
          "internalType": "uint256",
          "name": "id",
          "type": "uint256"
        }
      ],
      "name": "getArtItem",
      "outputs": [
        {
          "internalType": "uint256",
          "name": "",
          "type": "uint256"
        },
        {
          "internalType": "uint256",
          "name": "",
          "type": "uint256"
        },
        {
          "internalType": "string",
          "name": "",
          "type": "string"
        },
        {
          "internalType": "uint256",
          "name": "",
          "type": "uint256"
        },
        {
          "internalType": "uint256",
          "name": "",
          "type": "uint256"
        },
        {
          "internalType": "uint256",
          "name": "",
          "type": "uint256"
        },
        {
          "internalType": "bool",
          "name": "",
          "type": "bool"
        },
        {
          "internalType": "string",
          "name": "",
          "type": "string"
        },
        {
          "internalType": "address payable",
          "name": "",
          "type": "address"
        }
      ],
      "stateMutability": "view",
      "type": "function",
      "constant": true
    },
    {
      "inputs": [
        {
          "internalType": "uint256",
          "name": "id",
          "type": "uint256"
        }
      ],
      "name": "cancelAuction",
      "outputs": [
        {
          "internalType": "bool",
          "name": "success",
          "type": "bool"
        }
      ],
      "stateMutability": "payable",
      "type": "function",
      "payable": true
    },
    {
      "inputs": [
        {
          "internalType": "uint256",
          "name": "id",
          "type": "uint256"
        }
      ],
      "name": "placeBid",
      "outputs": [
        {
          "internalType": "bool",
          "name": "success",
          "type": "bool"
        }
      ],
      "stateMutability": "payable",
      "type": "function",
      "payable": true
    },
    {
      "inputs": [
        {
          "internalType": "uint256",
          "name": "id",
          "type": "uint256"
        }
      ],
      "name": "withdraw",
      "outputs": [
        {
          "internalType": "bool",
          "name": "success",
          "type": "bool"
        }
      ],
      "stateMutability": "payable",
      "type": "function",
      "payable": true
    }
  ],
  "bytecode": "0x60806040526000601160006101000a81548160ff0219169083151502179055503480156200002c57600080fd5b506040518060400160405280600481526020017f44415254000000000000000000000000000000000000000000000000000000008152506040518060400160405280600381526020017f4152540000000000000000000000000000000000000000000000000000000000815250620000b16301ffc9a760e01b6200017460201b60201c565b8160069080519060200190620000c99291906200027d565b508060079080519060200190620000e29291906200027d565b50620000fb6380ac58cd60e01b6200017460201b60201c565b62000113635b5e139f60e01b6200017460201b60201c565b6200012b63780e9d6360e01b6200017460201b60201c565b505033600b60006101000a81548173ffffffffffffffffffffffffffffffffffffffff021916908373ffffffffffffffffffffffffffffffffffffffff1602179055506200032c565b63ffffffff60e01b817bffffffffffffffffffffffffffffffffffffffffffffffffffffffff1916141562000211576040517f08c379a000000000000000000000000000000000000000000000000000000000815260040180806020018281038252601c8152602001807f4552433136353a20696e76616c696420696e746572666163652069640000000081525060200191505060405180910390fd5b6001600080837bffffffffffffffffffffffffffffffffffffffffffffffffffffffff19167bffffffffffffffffffffffffffffffffffffffffffffffffffffffff1916815260200190815260200160002060006101000a81548160ff02191690831515021790555050565b828054600181600116156101000203166002900490600052602060002090601f016020900481019282601f10620002c057805160ff1916838001178555620002f1565b82800160010185558215620002f1579182015b82811115620002f0578251825591602001919060010190620002d3565b5b50905062000300919062000304565b5090565b6200032991905b80821115620003255760008160009055506001016200030b565b5090565b90565b614b26806200033c6000396000f3fe60806040526004361061019c5760003560e01c80634f6ccce7116100ec5780639979ef451161008a578063aa46a40011610064578063aa46a40014610cf8578063b88d4fde14610d23578063c87b56dd14610e35578063e985e9c514610ee95761019c565b80639979ef4514610ad8578063a22cb46514610b1e578063a25cf92d14610b7b5761019c565b806370a08231116100c657806370a08231146109465780638da5cb5b146109ab57806395d89b4114610a0257806396b5a75514610a925761019c565b80634f6ccce7146107ec5780636352211e1461083b5780636c0360eb146108b65761019c565b806321f004eb116101595780632e1a7d4d116101335780632e1a7d4d1461063a5780632f745c591461068057806342842e0e146106ef578063454a2ab31461076a5761019c565b806321f004eb146103cf57806323b872dd1461055057806326fe3065146105cb5761019c565b806301ffc9a7146101a157806306fdde0314610213578063081812fc146102a3578063095ea7b31461031e57806314797de71461037957806318160ddd146103a4575b600080fd5b3480156101ad57600080fd5b506101f9600480360360208110156101c457600080fd5b8101908080357bffffffffffffffffffffffffffffffffffffffffffffffffffffffff19169060200190929190505050610f72565b604051808215151515815260200191505060405180910390f35b34801561021f57600080fd5b50610228610fd9565b6040518080602001828103825283818151815260200191508051906020019080838360005b8381101561026857808201518184015260208101905061024d565b50505050905090810190601f1680156102955780820380516001836020036101000a031916815260200191505b509250505060405180910390f35b3480156102af57600080fd5b506102dc600480360360208110156102c657600080fd5b810190808035906020019092919050505061107b565b604051808273ffffffffffffffffffffffffffffffffffffffff1673ffffffffffffffffffffffffffffffffffffffff16815260200191505060405180910390f35b34801561032a57600080fd5b506103776004803603604081101561034157600080fd5b81019080803573ffffffffffffffffffffffffffffffffffffffff16906020019092919080359060200190929190505050611116565b005b34801561038557600080fd5b5061038e61125a565b6040518082815260200191505060405180910390f35b3480156103b057600080fd5b506103b9611260565b6040518082815260200191505060405180910390f35b3480156103db57600080fd5b50610408600480360360208110156103f257600080fd5b8101908080359060200190929190505050611271565b604051808a81526020018981526020018060200188815260200187815260200186815260200185151515158152602001806020018473ffffffffffffffffffffffffffffffffffffffff1673ffffffffffffffffffffffffffffffffffffffff16815260200183810383528a818151815260200191508051906020019080838360005b838110156104a657808201518184015260208101905061048b565b50505050905090810190601f1680156104d35780820380516001836020036101000a031916815260200191505b50838103825285818151815260200191508051906020019080838360005b8381101561050c5780820151818401526020810190506104f1565b50505050905090810190601f1680156105395780820380516001836020036101000a031916815260200191505b509b50505050505050505050505060405180910390f35b34801561055c57600080fd5b506105c96004803603606081101561057357600080fd5b81019080803573ffffffffffffffffffffffffffffffffffffffff169060200190929190803573ffffffffffffffffffffffffffffffffffffffff1690602001909291908035906020019092919050505061162d565b005b3480156105d757600080fd5b50610624600480360360408110156105ee57600080fd5b8101908080359060200190929190803573ffffffffffffffffffffffffffffffffffffffff1690602001909291905050506116a3565b6040518082815260200191505060405180910390f35b6106666004803603602081101561065057600080fd5b81019080803590602001909291905050506116c8565b604051808215151515815260200191505060405180910390f35b34801561068c57600080fd5b506106d9600480360360408110156106a357600080fd5b81019080803573ffffffffffffffffffffffffffffffffffffffff16906020019092919080359060200190929190505050611c35565b6040518082815260200191505060405180910390f35b3480156106fb57600080fd5b506107686004803603606081101561071257600080fd5b81019080803573ffffffffffffffffffffffffffffffffffffffff169060200190929190803573ffffffffffffffffffffffffffffffffffffffff16906020019092919080359060200190929190505050611c90565b005b34801561077657600080fd5b506107a36004803603602081101561078d57600080fd5b8101908080359060200190929190505050611cb0565b604051808381526020018273ffffffffffffffffffffffffffffffffffffffff1673ffffffffffffffffffffffffffffffffffffffff1681526020019250505060405180910390f35b3480156107f857600080fd5b506108256004803603602081101561080f57600080fd5b8101908080359060200190929190505050611cf4565b6040518082815260200191505060405180910390f35b34801561084757600080fd5b506108746004803603602081101561085e57600080fd5b8101908080359060200190929190505050611d17565b604051808273ffffffffffffffffffffffffffffffffffffffff1673ffffffffffffffffffffffffffffffffffffffff16815260200191505060405180910390f35b3480156108c257600080fd5b506108cb611d4e565b6040518080602001828103825283818151815260200191508051906020019080838360005b8381101561090b5780820151818401526020810190506108f0565b50505050905090810190601f1680156109385780820380516001836020036101000a031916815260200191505b509250505060405180910390f35b34801561095257600080fd5b506109956004803603602081101561096957600080fd5b81019080803573ffffffffffffffffffffffffffffffffffffffff169060200190929190505050611df0565b6040518082815260200191505060405180910390f35b3480156109b757600080fd5b506109c0611ec5565b604051808273ffffffffffffffffffffffffffffffffffffffff1673ffffffffffffffffffffffffffffffffffffffff16815260200191505060405180910390f35b348015610a0e57600080fd5b50610a17611eeb565b6040518080602001828103825283818151815260200191508051906020019080838360005b83811015610a57578082015181840152602081019050610a3c565b50505050905090810190601f168015610a845780820380516001836020036101000a031916815260200191505b509250505060405180910390f35b610abe60048036036020811015610aa857600080fd5b8101908080359060200190929190505050611f8d565b604051808215151515815260200191505060405180910390f35b610b0460048036036020811015610aee57600080fd5b81019080803590602001909291905050506121f8565b604051808215151515815260200191505060405180910390f35b348015610b2a57600080fd5b50610b7960048036036040811015610b4157600080fd5b81019080803573ffffffffffffffffffffffffffffffffffffffff169060200190929190803515159060200190929190505050612a9c565b005b348015610b8757600080fd5b50610cf6600480360360a0811015610b9e57600080fd5b810190808035906020019092919080359060200190640100000000811115610bc557600080fd5b820183602082011115610bd757600080fd5b80359060200191846001830284011164010000000083111715610bf957600080fd5b91908080601f016020809104026020016040519081016040528093929190818152602001838380828437600081840152601f19601f820116905080830192505050505050509192919290803590602001909291908035906020019092919080359060200190640100000000811115610c7057600080fd5b820183602082011115610c8257600080fd5b80359060200191846001830284011164010000000083111715610ca457600080fd5b91908080601f016020809104026020016040519081016040528093929190818152602001838380828437600081840152601f19601f820116905080830192505050505050509192919290505050612c54565b005b348015610d0457600080fd5b50610d0d612f47565b6040518082815260200191505060405180910390f35b348015610d2f57600080fd5b50610e3360048036036080811015610d4657600080fd5b81019080803573ffffffffffffffffffffffffffffffffffffffff169060200190929190803573ffffffffffffffffffffffffffffffffffffffff1690602001909291908035906020019092919080359060200190640100000000811115610dad57600080fd5b820183602082011115610dbf57600080fd5b80359060200191846001830284011164010000000083111715610de157600080fd5b91908080601f016020809104026020016040519081016040528093929190818152602001838380828437600081840152601f19601f820116905080830192505050505050509192919290505050612f4d565b005b348015610e4157600080fd5b50610e6e60048036036020811015610e5857600080fd5b8101908080359060200190929190505050612fc5565b6040518080602001828103825283818151815260200191508051906020019080838360005b83811015610eae578082015181840152602081019050610e93565b50505050905090810190601f168015610edb5780820380516001836020036101000a031916815260200191505b509250505060405180910390f35b348015610ef557600080fd5b50610f5860048036036040811015610f0c57600080fd5b81019080803573ffffffffffffffffffffffffffffffffffffffff169060200190929190803573ffffffffffffffffffffffffffffffffffffffff1690602001909291905050506132ae565b604051808215151515815260200191505060405180910390f35b6000806000837bffffffffffffffffffffffffffffffffffffffffffffffffffffffff19167bffffffffffffffffffffffffffffffffffffffffffffffffffffffff1916815260200190815260200160002060009054906101000a900460ff169050919050565b606060068054600181600116156101000203166002900480601f0160208091040260200160405190810160405280929190818152602001828054600181600116156101000203166002900480156110715780601f1061104657610100808354040283529160200191611071565b820191906000526020600020905b81548152906001019060200180831161105457829003601f168201915b5050505050905090565b600061108682613342565b6110db576040517f08c379a000000000000000000000000000000000000000000000000000000000815260040180806020018281038252602c8152602001806149ef602c913960400191505060405180910390fd5b6004600083815260200190815260200160002060009054906101000a900473ffffffffffffffffffffffffffffffffffffffff169050919050565b600061112182611d17565b90508073ffffffffffffffffffffffffffffffffffffffff168373ffffffffffffffffffffffffffffffffffffffff1614156111a8576040517f08c379a0000000000000000000000000000000000000000000000000000000008152600401808060200182810382526021815260200180614a9f6021913960400191505060405180910390fd5b8073ffffffffffffffffffffffffffffffffffffffff166111c761335f565b73ffffffffffffffffffffffffffffffffffffffff1614806111f657506111f5816111f061335f565b6132ae565b5b61124b576040517f08c379a00000000000000000000000000000000000000000000000000000000081526004018080602001828103825260388152602001806149426038913960400191505060405180910390fd5b6112558383613367565b505050565b600d5481565b600061126c6002613420565b905090565b60008060606000806000806060600089600a600082815260200190815260200160002060030160009054906101000a900460ff16611317576040517f08c379a00000000000000000000000000000000000000000000000000000000081526004018080602001828103825260098152602001807f4e6f7420466f756e64000000000000000000000000000000000000000000000081525060200191505060405180910390fd5b61131f6146b3565b600a60008d8152602001908152602001600020604051806101400160405290816000820160009054906101000a900473ffffffffffffffffffffffffffffffffffffffff1673ffffffffffffffffffffffffffffffffffffffff1673ffffffffffffffffffffffffffffffffffffffff16815260200160018201548152602001600282018054600181600116156101000203166002900480601f0160208091040260200160405190810160405280929190818152602001828054600181600116156101000203166002900480156114375780601f1061140c57610100808354040283529160200191611437565b820191906000526020600020905b81548152906001019060200180831161141a57829003601f168201915b505050505081526020016003820160009054906101000a900460ff161515151581526020016004820154815260200160058201548152602001600682015481526020016007820160009054906101000a900460ff161515151581526020016007820160019054906101000a900460ff16151515158152602001600882018054600181600116156101000203166002900480601f0160208091040260200160405190810160405280929190818152602001828054600181600116156101000203166002900480156115485780601f1061151d57610100808354040283529160200191611548565b820191906000526020600020905b81548152906001019060200180831161152b57829003601f168201915b505050505081525050905061155b614722565b601060008e8152602001908152602001600020604051806040016040529081600082015481526020016001820160009054906101000a900473ffffffffffffffffffffffffffffffffffffffff1673ffffffffffffffffffffffffffffffffffffffff1673ffffffffffffffffffffffffffffffffffffffff168152505090508c8260200151836040015183600001518560a001518660c001518760e0015188610120015189600001518696508191509b509b509b509b509b509b509b509b509b505050509193959799909294969850565b61163e61163861335f565b82613435565b611693576040517f08c379a0000000000000000000000000000000000000000000000000000000008152600401808060200182810382526031815260200180614ac06031913960400191505060405180910390fd5b61169e838383613529565b505050565b600e602052816000526040600020602052806000526040600020600091509150505481565b6000816116d36146b3565b600a6000838152602001908152602001600020604051806101400160405290816000820160009054906101000a900473ffffffffffffffffffffffffffffffffffffffff1673ffffffffffffffffffffffffffffffffffffffff1673ffffffffffffffffffffffffffffffffffffffff16815260200160018201548152602001600282018054600181600116156101000203166002900480601f0160208091040260200160405190810160405280929190818152602001828054600181600116156101000203166002900480156117eb5780601f106117c0576101008083540402835291602001916117eb565b820191906000526020600020905b8154815290600101906020018083116117ce57829003601f168201915b505050505081526020016003820160009054906101000a900460ff161515151581526020016004820154815260200160058201548152602001600682015481526020016007820160009054906101000a900460ff161515151581526020016007820160019054906101000a900460ff16151515158152602001600882018054600181600116156101000203166002900480601f0160208091040260200160405190810160405280929190818152602001828054600181600116156101000203166002900480156118fc5780601f106118d1576101008083540402835291602001916118fc565b820191906000526020600020905b8154815290600101906020018083116118df57829003601f168201915b5050505050815250509050806000015173ffffffffffffffffffffffffffffffffffffffff163373ffffffffffffffffffffffffffffffffffffffff16141561194457600080fd5b60011515600a600086815260200190815260200160002060070160009054906101000a900460ff1615151461197857600080fd5b60011515600a600086815260200190815260200160002060070160019054906101000a900460ff161515146119ac57600080fd5b60008060006010600088815260200190815260200160002090508060010160009054906101000a900473ffffffffffffffffffffffffffffffffffffffff1673ffffffffffffffffffffffffffffffffffffffff163373ffffffffffffffffffffffffffffffffffffffff161415611ac1578060010160009054906101000a900473ffffffffffffffffffffffffffffffffffffffff169250600e600088815260200190815260200160002060008260010160009054906101000a900473ffffffffffffffffffffffffffffffffffffffff1673ffffffffffffffffffffffffffffffffffffffff1673ffffffffffffffffffffffffffffffffffffffff168152602001908152602001600020549150611b18565b339250600e600088815260200190815260200160002060008473ffffffffffffffffffffffffffffffffffffffff1673ffffffffffffffffffffffffffffffffffffffff1681526020019081526020016000205491505b6000821415611b2657600080fd5b81600e600089815260200190815260200160002060008573ffffffffffffffffffffffffffffffffffffffff1673ffffffffffffffffffffffffffffffffffffffff168152602001908152602001600020600082825403925050819055503373ffffffffffffffffffffffffffffffffffffffff166108fc839081150290604051600060405180830381858888f19350505050611bc257600080fd5b8273ffffffffffffffffffffffffffffffffffffffff163373ffffffffffffffffffffffffffffffffffffffff167f0ec497a8ae5b1ba29c60470ef651def995fac3deebbdcc56c47a4e5f51a4c2bd846040518082815260200191505060405180910390a3600195505050505050919050565b6000611c8882600160008673ffffffffffffffffffffffffffffffffffffffff1673ffffffffffffffffffffffffffffffffffffffff16815260200190815260200160002061376c90919063ffffffff16565b905092915050565b611cab83838360405180602001604052806000815250612f4d565b505050565b60106020528060005260406000206000915090508060000154908060010160009054906101000a900473ffffffffffffffffffffffffffffffffffffffff16905082565b600080611d0b83600261378690919063ffffffff16565b50905080915050919050565b6000611d47826040518060600160405280602981526020016149a46029913960026137b59092919063ffffffff16565b9050919050565b606060098054600181600116156101000203166002900480601f016020809104026020016040519081016040528092919081815260200182805460018160011615610100020316600290048015611de65780601f10611dbb57610100808354040283529160200191611de6565b820191906000526020600020905b815481529060010190602001808311611dc957829003601f168201915b5050505050905090565b60008073ffffffffffffffffffffffffffffffffffffffff168273ffffffffffffffffffffffffffffffffffffffff161415611e77576040517f08c379a000000000000000000000000000000000000000000000000000000000815260040180806020018281038252602a81526020018061497a602a913960400191505060405180910390fd5b611ebe600160008473ffffffffffffffffffffffffffffffffffffffff1673ffffffffffffffffffffffffffffffffffffffff1681526020019081526020016000206137d4565b9050919050565b600b60009054906101000a900473ffffffffffffffffffffffffffffffffffffffff1681565b606060078054600181600116156101000203166002900480601f016020809104026020016040519081016040528092919081815260200182805460018160011615610100020316600290048015611f835780601f10611f5857610100808354040283529160200191611f83565b820191906000526020600020905b815481529060010190602001808311611f6657829003601f168201915b5050505050905090565b600080600a60008481526020019081526020016000209050600015158160070160009054906101000a900460ff16151514611fc757600080fd5b42600182600601540282600501540110156121b2576000601060008581526020019081526020016000209050600c6000815480929190600101919050555061201133600c546137e9565b6120b9600c54836002018054600181600116156101000203166002900480601f0160208091040260200160405190810160405280929190818152602001828054600181600116156101000203166002900480156120af5780601f10612084576101008083540402835291602001916120af565b820191906000526020600020905b81548152906001019060200180831161209257829003601f168201915b5050505050613807565b60018260070160006101000a81548160ff0219169083151502179055506000816000015414156120e857600080fd5b8060000154600e600086815260200190815260200160002060008360010160009054906101000a900473ffffffffffffffffffffffffffffffffffffffff1673ffffffffffffffffffffffffffffffffffffffff1673ffffffffffffffffffffffffffffffffffffffff168152602001908152602001600020600082825403925050819055503373ffffffffffffffffffffffffffffffffffffffff166108fc82600001549081150290604051600060405180830381858888f193505050506121b057600080fd5b505b7f462b6ca7f632601af1295aeb320851f50e8e630a309173f23535845ea4bfb3b960405160405180910390a18060070160009054906101000a900460ff16915050919050565b6000816122036146b3565b600a6000838152602001908152602001600020604051806101400160405290816000820160009054906101000a900473ffffffffffffffffffffffffffffffffffffffff1673ffffffffffffffffffffffffffffffffffffffff1673ffffffffffffffffffffffffffffffffffffffff16815260200160018201548152602001600282018054600181600116156101000203166002900480601f01602080910402602001604051908101604052809291908181526020018280546001816001161561010002031660029004801561231b5780601f106122f05761010080835404028352916020019161231b565b820191906000526020600020905b8154815290600101906020018083116122fe57829003601f168201915b505050505081526020016003820160009054906101000a900460ff161515151581526020016004820154815260200160058201548152602001600682015481526020016007820160009054906101000a900460ff161515151581526020016007820160019054906101000a900460ff16151515158152602001600882018054600181600116156101000203166002900480601f01602080910402602001604051908101604052809291908181526020018280546001816001161561010002031660029004801561242c5780601f106124015761010080835404028352916020019161242c565b820191906000526020600020905b81548152906001019060200180831161240f57829003601f168201915b5050505050815250509050806000015173ffffffffffffffffffffffffffffffffffffffff163373ffffffffffffffffffffffffffffffffffffffff16141561247457600080fd5b8361247d6146b3565b600a6000838152602001908152602001600020604051806101400160405290816000820160009054906101000a900473ffffffffffffffffffffffffffffffffffffffff1673ffffffffffffffffffffffffffffffffffffffff1673ffffffffffffffffffffffffffffffffffffffff16815260200160018201548152602001600282018054600181600116156101000203166002900480601f0160208091040260200160405190810160405280929190818152602001828054600181600116156101000203166002900480156125955780601f1061256a57610100808354040283529160200191612595565b820191906000526020600020905b81548152906001019060200180831161257857829003601f168201915b505050505081526020016003820160009054906101000a900460ff161515151581526020016004820154815260200160058201548152602001600682015481526020016007820160009054906101000a900460ff161515151581526020016007820160019054906101000a900460ff16151515158152602001600882018054600181600116156101000203166002900480601f0160208091040260200160405190810160405280929190818152602001828054600181600116156101000203166002900480156126a65780601f1061267b576101008083540402835291602001916126a6565b820191906000526020600020905b81548152906001019060200180831161268957829003601f168201915b505050505081525050905080602001513410156126c257600080fd5b60003414156126d057600080fd5b60006010600088815260200190815260200160002090506000600a60008981526020019081526020016000209050600015158160070160009054906101000a900460ff1615151461272057600080fd5b600034600e60008b815260200190815260200160002060003373ffffffffffffffffffffffffffffffffffffffff1673ffffffffffffffffffffffffffffffffffffffff168152602001908152602001600020540190508260000154811161278757600080fd5b6000600e60008b815260200190815260200160002060008560010160009054906101000a900473ffffffffffffffffffffffffffffffffffffffff1673ffffffffffffffffffffffffffffffffffffffff1673ffffffffffffffffffffffffffffffffffffffff16815260200190815260200160002054905081600e60008c815260200190815260200160002060003373ffffffffffffffffffffffffffffffffffffffff1673ffffffffffffffffffffffffffffffffffffffff1681526020019081526020016000208190555080821161288d578083600401548301111561287857808460000181905550612888565b8260040154820184600001819055505b6129a8565b8360010160009054906101000a900473ffffffffffffffffffffffffffffffffffffffff1673ffffffffffffffffffffffffffffffffffffffff163373ffffffffffffffffffffffffffffffffffffffff16146129a457338460010160006101000a81548173ffffffffffffffffffffffffffffffffffffffff021916908373ffffffffffffffffffffffffffffffffffffffff160217905550808360040154830111156129935760001515601160009054906101000a900460ff161515141561295f5780846000018190555061298e565b826004015483600101540184600001819055506001601160006101000a81548160ff0219169083151502179055505b6129a3565b8260040154820184600001819055505b5b8190505b600015158360070160019054906101000a900460ff16151514156129d0573484600001819055505b8360010160009054906101000a900473ffffffffffffffffffffffffffffffffffffffff1673ffffffffffffffffffffffffffffffffffffffff168a3373ffffffffffffffffffffffffffffffffffffffff167fe209fb7fe1214f754b59704eb777dbfb99e4a469eda593538d8fb30ca9681abc8585896000015460405180848152602001838152602001828152602001935050505060405180910390a460018360070160016101000a81548160ff021916908315150217905550600198505050505050505050919050565b612aa461335f565b73ffffffffffffffffffffffffffffffffffffffff168273ffffffffffffffffffffffffffffffffffffffff161415612b45576040517f08c379a00000000000000000000000000000000000000000000000000000000081526004018080602001828103825260198152602001807f4552433732313a20617070726f766520746f2063616c6c65720000000000000081525060200191505060405180910390fd5b8060056000612b5261335f565b73ffffffffffffffffffffffffffffffffffffffff1673ffffffffffffffffffffffffffffffffffffffff16815260200190815260200160002060008473ffffffffffffffffffffffffffffffffffffffff1673ffffffffffffffffffffffffffffffffffffffff16815260200190815260200160002060006101000a81548160ff0219169083151502179055508173ffffffffffffffffffffffffffffffffffffffff16612bff61335f565b73ffffffffffffffffffffffffffffffffffffffff167f17307eab39ab6107e8899845ad3d59bd9653f200f220920489ca2b5937696c3183604051808215151515815260200191505060405180910390a35050565b6000851015612ccb576040517f08c379a000000000000000000000000000000000000000000000000000000000815260040180806020018281038252601c8152602001807f50726963652063616e6e6f74206265206c65737373207468616e20300000000081525060200191505060405180910390fd5b600d6000815480929190600101919050555060004290506040518061014001604052803373ffffffffffffffffffffffffffffffffffffffff16815260200187815260200186815260200160011515815260200185815260200182815260200184815260200160001515815260200160001515815260200183815250600a6000600d54815260200190815260200160002060008201518160000160006101000a81548173ffffffffffffffffffffffffffffffffffffffff021916908373ffffffffffffffffffffffffffffffffffffffff160217905550602082015181600101556040820151816002019080519060200190612dc9929190614752565b5060608201518160030160006101000a81548160ff0219169083151502179055506080820151816004015560a0820151816005015560c0820151816006015560e08201518160070160006101000a81548160ff0219169083151502179055506101008201518160070160016101000a81548160ff021916908315150217905550610120820151816008019080519060200190612e66929190614752565b509050503373ffffffffffffffffffffffffffffffffffffffff167fe4915238a88e31f00a90b7e08676caf678bc06d9da9b1a0ac3c86fc026859d01600d54848985886040518086815260200180602001858152602001848152602001838152602001828103825286818151815260200191508051906020019080838360005b83811015612f01578082015181840152602081019050612ee6565b50505050905090810190601f168015612f2e5780820380516001836020036101000a031916815260200191505b50965050505050505060405180910390a2505050505050565b600c5481565b612f5e612f5861335f565b83613435565b612fb3576040517f08c379a0000000000000000000000000000000000000000000000000000000008152600401808060200182810382526031815260200180614ac06031913960400191505060405180910390fd5b612fbf84848484613891565b50505050565b6060612fd082613342565b613025576040517f08c379a000000000000000000000000000000000000000000000000000000000815260040180806020018281038252602f815260200180614a70602f913960400191505060405180910390fd5b6060600860008481526020019081526020016000208054600181600116156101000203166002900480601f0160208091040260200160405190810160405280929190818152602001828054600181600116156101000203166002900480156130ce5780601f106130a3576101008083540402835291602001916130ce565b820191906000526020600020905b8154815290600101906020018083116130b157829003601f168201915b505050505090506000600980546001816001161561010002031660029004905014156130fd57809150506132a9565b6000815111156131d65760098160405160200180838054600181600116156101000203166002900480156131685780601f10613146576101008083540402835291820191613168565b820191906000526020600020905b815481529060010190602001808311613154575b505082805190602001908083835b602083106131995780518252602082019150602081019050602083039250613176565b6001836020036101000a038019825116818451168082178552505050505050905001925050506040516020818303038152906040529150506132a9565b60096131e184613903565b604051602001808380546001816001161561010002031660029004801561323f5780601f1061321d57610100808354040283529182019161323f565b820191906000526020600020905b81548152906001019060200180831161322b575b505082805190602001908083835b60208310613270578051825260208201915060208101905060208303925061324d565b6001836020036101000a038019825116818451168082178552505050505050905001925050506040516020818303038152906040529150505b919050565b6000600560008473ffffffffffffffffffffffffffffffffffffffff1673ffffffffffffffffffffffffffffffffffffffff16815260200190815260200160002060008373ffffffffffffffffffffffffffffffffffffffff1673ffffffffffffffffffffffffffffffffffffffff16815260200190815260200160002060009054906101000a900460ff16905092915050565b6000613358826002613a3390919063ffffffff16565b9050919050565b600033905090565b816004600083815260200190815260200160002060006101000a81548173ffffffffffffffffffffffffffffffffffffffff021916908373ffffffffffffffffffffffffffffffffffffffff160217905550808273ffffffffffffffffffffffffffffffffffffffff166133da83611d17565b73ffffffffffffffffffffffffffffffffffffffff167f8c5be1e5ebec7d5bd14f71427d1e84f3dd0314c0f7b2291e5b200ac8c7c3b92560405160405180910390a45050565b600061342e82600001613a4d565b9050919050565b600061344082613342565b613495576040517f08c379a000000000000000000000000000000000000000000000000000000000815260040180806020018281038252602c815260200180614916602c913960400191505060405180910390fd5b60006134a083611d17565b90508073ffffffffffffffffffffffffffffffffffffffff168473ffffffffffffffffffffffffffffffffffffffff16148061350f57508373ffffffffffffffffffffffffffffffffffffffff166134f78461107b565b73ffffffffffffffffffffffffffffffffffffffff16145b80613520575061351f81856132ae565b5b91505092915050565b8273ffffffffffffffffffffffffffffffffffffffff1661354982611d17565b73ffffffffffffffffffffffffffffffffffffffff16146135b5576040517f08c379a0000000000000000000000000000000000000000000000000000000008152600401808060200182810382526029815260200180614a476029913960400191505060405180910390fd5b600073ffffffffffffffffffffffffffffffffffffffff168273ffffffffffffffffffffffffffffffffffffffff16141561363b576040517f08c379a00000000000000000000000000000000000000000000000000000000081526004018080602001828103825260248152602001806148cc6024913960400191505060405180910390fd5b613646838383613a5e565b613651600082613367565b6136a281600160008673ffffffffffffffffffffffffffffffffffffffff1673ffffffffffffffffffffffffffffffffffffffff168152602001908152602001600020613a6390919063ffffffff16565b506136f481600160008573ffffffffffffffffffffffffffffffffffffffff1673ffffffffffffffffffffffffffffffffffffffff168152602001908152602001600020613a7d90919063ffffffff16565b5061370b81836002613a979092919063ffffffff16565b50808273ffffffffffffffffffffffffffffffffffffffff168473ffffffffffffffffffffffffffffffffffffffff167fddf252ad1be2c89b69c2b068fc378daa952ba7f163c4a11628f55a4df523b3ef60405160405180910390a4505050565b600061377b8360000183613acc565b60001c905092915050565b6000806000806137998660000186613b4f565b915091508160001c8160001c8090509350935050509250929050565b60006137c8846000018460001b84613be8565b60001c90509392505050565b60006137e282600001613cde565b9050919050565b613803828260405180602001604052806000815250613cef565b5050565b61381082613342565b613865576040517f08c379a000000000000000000000000000000000000000000000000000000000815260040180806020018281038252602c815260200180614a1b602c913960400191505060405180910390fd5b8060086000848152602001908152602001600020908051906020019061388c9291906147d2565b505050565b61389c848484613529565b6138a884848484613d60565b6138fd576040517f08c379a000000000000000000000000000000000000000000000000000000000815260040180806020018281038252603281526020018061489a6032913960400191505060405180910390fd5b50505050565b6060600082141561394b576040518060400160405280600181526020017f30000000000000000000000000000000000000000000000000000000000000008152509050613a2e565b600082905060005b60008214613975578080600101915050600a828161396d57fe5b049150613953565b6060816040519080825280601f01601f1916602001820160405280156139aa5781602001600182028036833780820191505090505b50905060006001830390508593505b60008414613a2657600a84816139cb57fe5b0660300160f81b828280600190039350815181106139e557fe5b60200101907effffffffffffffffffffffffffffffffffffffffffffffffffffffffffffff1916908160001a905350600a8481613a1e57fe5b0493506139b9565b819450505050505b919050565b6000613a45836000018360001b613fa5565b905092915050565b600081600001805490509050919050565b505050565b6000613a75836000018360001b613fc8565b905092915050565b6000613a8f836000018360001b6140b0565b905092915050565b6000613ac3846000018460001b8473ffffffffffffffffffffffffffffffffffffffff1660001b614120565b90509392505050565b600081836000018054905011613b2d576040517f08c379a00000000000000000000000000000000000000000000000000000000081526004018080602001828103825260228152602001806148786022913960400191505060405180910390fd5b826000018281548110613b3c57fe5b9060005260206000200154905092915050565b60008082846000018054905011613bb1576040517f08c379a00000000000000000000000000000000000000000000000000000000081526004018080602001828103825260228152602001806149cd6022913960400191505060405180910390fd5b6000846000018481548110613bc257fe5b906000526020600020906002020190508060000154816001015492509250509250929050565b60008084600101600085815260200190815260200160002054905060008114158390613caf576040517f08c379a00000000000000000000000000000000000000000000000000000000081526004018080602001828103825283818151815260200191508051906020019080838360005b83811015613c74578082015181840152602081019050613c59565b50505050905090810190601f168015613ca15780820380516001836020036101000a031916815260200191505b509250505060405180910390fd5b50846000016001820381548110613cc257fe5b9060005260206000209060020201600101549150509392505050565b600081600001805490509050919050565b613cf983836141fc565b613d066000848484613d60565b613d5b576040517f08c379a000000000000000000000000000000000000000000000000000000000815260040180806020018281038252603281526020018061489a6032913960400191505060405180910390fd5b505050565b6000613d818473ffffffffffffffffffffffffffffffffffffffff166143f0565b613d8e5760019050613f9d565b6060613f2463150b7a0260e01b613da361335f565b888787604051602401808573ffffffffffffffffffffffffffffffffffffffff1673ffffffffffffffffffffffffffffffffffffffff1681526020018473ffffffffffffffffffffffffffffffffffffffff1673ffffffffffffffffffffffffffffffffffffffff16815260200183815260200180602001828103825283818151815260200191508051906020019080838360005b83811015613e53578082015181840152602081019050613e38565b50505050905090810190601f168015613e805780820380516001836020036101000a031916815260200191505b5095505050505050604051602081830303815290604052907bffffffffffffffffffffffffffffffffffffffffffffffffffffffff19166020820180517bffffffffffffffffffffffffffffffffffffffffffffffffffffffff838183161783525050505060405180606001604052806032815260200161489a603291398773ffffffffffffffffffffffffffffffffffffffff166144039092919063ffffffff16565b90506000818060200190516020811015613f3d57600080fd5b8101908080519060200190929190505050905063150b7a0260e01b7bffffffffffffffffffffffffffffffffffffffffffffffffffffffff1916817bffffffffffffffffffffffffffffffffffffffffffffffffffffffff191614925050505b949350505050565b600080836001016000848152602001908152602001600020541415905092915050565b600080836001016000848152602001908152602001600020549050600081146140a4576000600182039050600060018660000180549050039050600086600001828154811061401357fe5b906000526020600020015490508087600001848154811061403057fe5b906000526020600020018190555060018301876001016000838152602001908152602001600020819055508660000180548061406857fe5b600190038181906000526020600020016000905590558660010160008781526020019081526020016000206000905560019450505050506140aa565b60009150505b92915050565b60006140bc838361441b565b61411557826000018290806001815401808255809150506001900390600052602060002001600090919091909150558260000180549050836001016000848152602001908152602001600020819055506001905061411a565b600090505b92915050565b60008084600101600085815260200190815260200160002054905060008114156141c7578460000160405180604001604052808681526020018581525090806001815401808255809150506001900390600052602060002090600202016000909190919091506000820151816000015560208201518160010155505084600001805490508560010160008681526020019081526020016000208190555060019150506141f5565b828560000160018303815481106141da57fe5b90600052602060002090600202016001018190555060009150505b9392505050565b600073ffffffffffffffffffffffffffffffffffffffff168273ffffffffffffffffffffffffffffffffffffffff16141561429f576040517f08c379a00000000000000000000000000000000000000000000000000000000081526004018080602001828103825260208152602001807f4552433732313a206d696e7420746f20746865207a65726f206164647265737381525060200191505060405180910390fd5b6142a881613342565b1561431b576040517f08c379a000000000000000000000000000000000000000000000000000000000815260040180806020018281038252601c8152602001807f4552433732313a20746f6b656e20616c7265616479206d696e7465640000000081525060200191505060405180910390fd5b61432760008383613a5e565b61437881600160008573ffffffffffffffffffffffffffffffffffffffff1673ffffffffffffffffffffffffffffffffffffffff168152602001908152602001600020613a7d90919063ffffffff16565b5061438f81836002613a979092919063ffffffff16565b50808273ffffffffffffffffffffffffffffffffffffffff16600073ffffffffffffffffffffffffffffffffffffffff167fddf252ad1be2c89b69c2b068fc378daa952ba7f163c4a11628f55a4df523b3ef60405160405180910390a45050565b600080823b905060008111915050919050565b6060614412848460008561443e565b90509392505050565b600080836001016000848152602001908152602001600020541415905092915050565b606082471015614499576040517f08c379a00000000000000000000000000000000000000000000000000000000081526004018080602001828103825260268152602001806148f06026913960400191505060405180910390fd5b6144a2856143f0565b614514576040517f08c379a000000000000000000000000000000000000000000000000000000000815260040180806020018281038252601d8152602001807f416464726573733a2063616c6c20746f206e6f6e2d636f6e747261637400000081525060200191505060405180910390fd5b600060608673ffffffffffffffffffffffffffffffffffffffff1685876040518082805190602001908083835b602083106145645780518252602082019150602081019050602083039250614541565b6001836020036101000a03801982511681845116808217855250505050505090500191505060006040518083038185875af1925050503d80600081146145c6576040519150601f19603f3d011682016040523d82523d6000602084013e6145cb565b606091505b50915091506145db8282866145e7565b92505050949350505050565b606083156145f7578290506146ac565b60008351111561460a5782518084602001fd5b816040517f08c379a00000000000000000000000000000000000000000000000000000000081526004018080602001828103825283818151815260200191508051906020019080838360005b83811015614671578082015181840152602081019050614656565b50505050905090810190601f16801561469e5780820380516001836020036101000a031916815260200191505b509250505060405180910390fd5b9392505050565b604051806101400160405280600073ffffffffffffffffffffffffffffffffffffffff1681526020016000815260200160608152602001600015158152602001600081526020016000815260200160008152602001600015158152602001600015158152602001606081525090565b604051806040016040528060008152602001600073ffffffffffffffffffffffffffffffffffffffff1681525090565b828054600181600116156101000203166002900490600052602060002090601f016020900481019282601f1061479357805160ff19168380011785556147c1565b828001600101855582156147c1579182015b828111156147c05782518255916020019190600101906147a5565b5b5090506147ce9190614852565b5090565b828054600181600116156101000203166002900490600052602060002090601f016020900481019282601f1061481357805160ff1916838001178555614841565b82800160010185558215614841579182015b82811115614840578251825591602001919060010190614825565b5b50905061484e9190614852565b5090565b61487491905b80821115614870576000816000905550600101614858565b5090565b9056fe456e756d657261626c655365743a20696e646578206f7574206f6620626f756e64734552433732313a207472616e7366657220746f206e6f6e20455243373231526563656976657220696d706c656d656e7465724552433732313a207472616e7366657220746f20746865207a65726f2061646472657373416464726573733a20696e73756666696369656e742062616c616e636520666f722063616c6c4552433732313a206f70657261746f7220717565727920666f72206e6f6e6578697374656e7420746f6b656e4552433732313a20617070726f76652063616c6c6572206973206e6f74206f776e6572206e6f7220617070726f76656420666f7220616c6c4552433732313a2062616c616e636520717565727920666f7220746865207a65726f20616464726573734552433732313a206f776e657220717565727920666f72206e6f6e6578697374656e7420746f6b656e456e756d657261626c654d61703a20696e646578206f7574206f6620626f756e64734552433732313a20617070726f76656420717565727920666f72206e6f6e6578697374656e7420746f6b656e4552433732314d657461646174613a2055524920736574206f66206e6f6e6578697374656e7420746f6b656e4552433732313a207472616e73666572206f6620746f6b656e2074686174206973206e6f74206f776e4552433732314d657461646174613a2055524920717565727920666f72206e6f6e6578697374656e7420746f6b656e4552433732313a20617070726f76616c20746f2063757272656e74206f776e65724552433732313a207472616e736665722063616c6c6572206973206e6f74206f776e6572206e6f7220617070726f766564a264697066735822122047b706b0dca031faa71f5b02a5f322d7f9fbaa9a50dabf3d63640dbf7429122464736f6c63430006030033",
  "source": "pragma solidity ^0.6.3;\r\n\r\nimport \"@openzeppelin/contracts/token/ERC721/ERC721.sol\";\r\nimport \"@openzeppelin/contracts/math/SafeMath.sol\";\r\ncontract ArtAuction is ERC721 {\r\n   \r\n  using SafeMath for uint256;  //For Future use\r\n\r\n  //Note: Token is minted after it is sold or after auction ends\r\n \r\n  //variables that remain static or connstant\r\n   mapping(uint256 => ArtItem) private _artItems;  //Map id to ArtItem\r\n  address public owner;   //owner\r\n  //variables that are dynamic or change\r\n  uint256 public _tokenIds;  \r\n  //Unique Image ID that are tokenized\r\n  uint256 public _artItemIds;\r\n  //Unique ID up images for sale but not tokenized\r\n \r\n  mapping(uint256=>mapping(address => uint256)) public fundsByBidder;\r\n  //map _artItemIds to fundsByBidder\r\n  mapping(int256=>uint256) token; //Map tokenIds to _artItemIds so as to connect to struct.\r\n  mapping(uint256=>bidding) public bid;  //mapping tokenid to bidding\r\n  bool firsttime = false;  //to mart first successfull bid\r\n\r\n   //Events\r\n    event LogBid(address indexed bidder, uint indexed artItemId, uint bid, address indexed highestBidder, uint highestBid, uint highestBindingBid);  \r\n    event LogWithdrawal(address indexed withdrawer, address indexed withdrawalAccount, uint amount);\r\n    event LogCanceled();\r\n    event LogAddItem(uint256 _artItemIds, string name, address payable indexed seller, uint256 price, uint nowTime, uint timePeriod);\r\n\r\n  //Art Item\r\n  struct ArtItem {\r\n        address payable seller; //address of seller\r\n        uint256 minbid; //minimum price by artist\r\n        string tokenURI;  //IPFS URL\r\n        bool exists;    //token by id exists or not\r\n        uint bidIncrement; //incremention of bid\r\n        uint time;\r\n        uint timePeriod;\r\n        bool cancelled;\r\n        bool auctionstarted;\r\n        string name;\r\n    }\r\n   \r\n    struct bidding{\r\n     uint highestBindingBid; //highestBindingBid of the tokenid\r\n     address payable highestBidder;\r\n    }\r\n\r\n\r\n  constructor() public ERC721(\"DART\", \"ART\")  //Initializing ERC721\r\n  {  \r\n    owner=msg.sender;\r\n  }\r\n \r\n   //modifiers\r\n \r\n  modifier artItemExist(uint256 id) {   //check if item exists\r\n        require(_artItems[id].exists, \"Not Found\");\r\n        _;\r\n    }\r\n   \r\n    modifier onlyNotOwner(uint256 id) {            //Check if owner is calling\r\n      ArtItem memory artItem = _artItems[id];  \r\n      if (msg.sender == artItem.seller) revert();\r\n    _;\r\n     }\r\n\r\n    modifier onlyOwner(uint256 id)\r\n     {\r\n        ArtItem memory artItem = _artItems[id];  \r\n        if (msg.sender != artItem.seller) revert();\r\n         _;\r\n     }\r\n     \r\n    modifier minbid(uint256 id)\r\n    {\r\n        ArtItem memory artItem = _artItems[id];\r\n        if(msg.value<artItem.minbid) revert();\r\n        _;\r\n    }\r\n\r\n  function addArtItem(uint256 price, string memory tokenURI, uint _bidincrement, uint timePeriod, string memory name) public {\r\n        require(price >= 0, \"Price cannot be lesss than 0\");\r\n\r\n        _artItemIds++;\r\n        uint nowTime = now;\r\n        _artItems[_artItemIds] = ArtItem(msg.sender, price, tokenURI, true, _bidincrement, nowTime, timePeriod,false,false,name);\r\n        emit LogAddItem(_artItemIds, name, msg.sender, price, nowTime, timePeriod);\r\n    }\r\n\r\n       \r\n\r\n  function getArtItem(uint256 id)   //get art item info\r\n        public\r\n        view\r\n        artItemExist(id)\r\n        returns (\r\n            uint256,\r\n            uint256,\r\n            string memory,\r\n            uint,\r\n            uint,\r\n            uint,\r\n            bool,\r\n            string memory,\r\n            address payable\r\n        )\r\n    {\r\n        ArtItem memory artItem = _artItems[id];\r\n        bidding memory bid = bid[id];\r\n        return (id, artItem.minbid, artItem.tokenURI, bid.highestBindingBid,artItem.time,artItem.timePeriod,artItem.cancelled,artItem.name,artItem.seller);\r\n    }\r\n   \r\n    //auction functions :\r\n   \r\n    //Cancel auction\r\n    function cancelAuction(uint256 id) public payable\r\n    returns (bool success)\r\n   {\r\n   \r\n    ArtItem storage artItem = _artItems[id];  \r\n    require(artItem.cancelled==false);\r\n    if((artItem.time + (artItem.timePeriod * 1 seconds) < now))  //mint token if auctionstarted\r\n    {\r\n    bidding storage bid = bid[id];\r\n    _tokenIds++;\r\n    //token[_tokenIds] = _artItemIds;\r\n    _safeMint(msg.sender, _tokenIds);\r\n    _setTokenURI(_tokenIds, artItem.tokenURI);\r\n    artItem.cancelled=true;\r\n     // the auction's owner should be allowed to withdraw the highestBindingBid\r\n   \r\n    if (bid.highestBindingBid == 0) revert();\r\n    fundsByBidder[id][bid.highestBidder] -= bid.highestBindingBid;\r\n    // send the funds\r\n    if (!msg.sender.send(bid.highestBindingBid)) revert();\r\n        }\r\n       \r\n   \r\n    LogCanceled();\r\n    return artItem.cancelled;    \r\n   }\r\n   \r\n   function placeBid(uint256 id) public\r\n    payable\r\n    onlyNotOwner(id)\r\n    minbid(id)\r\n   \r\n    returns (bool success)\r\n{  \r\n\r\n    // reject payments of 0 ETH\r\n    if (msg.value == 0) revert();\r\n   \r\n    // calculate the user's total bid based on the current amount they've sent to the contract\r\n    // plus whatever has been sent with this transaction\r\n    bidding storage bid = bid[id];\r\n    ArtItem storage artItem = _artItems[id];  \r\n   \r\n    require(artItem.cancelled==false);\r\n \r\n    uint newBid = fundsByBidder[id][msg.sender] + msg.value;\r\n\r\n    // if the user isn't even willing to overbid the highest binding bid, there's nothing for us\r\n    // to do except revert the transaction.\r\n    if (newBid <= bid.highestBindingBid) revert();\r\n\r\n    // grab the previous highest bid (before updating fundsByBidder, in case msg.sender is the\r\n    // highestBidder and is just increasing their maximum bid).\r\n    uint highestBid = fundsByBidder[id][bid.highestBidder];\r\n\r\n    fundsByBidder[id][msg.sender] = newBid;\r\n\r\n    if (newBid <= highestBid) {\r\n        // if the user has overbid the highestBindingBid but not the highestBid, we simply\r\n        // increase the highestBindingBid and leave highestBidder alone.\r\n\r\n        // note that this case is impossible if msg.sender == highestBidder because you can never\r\n        // bid less ETH than you already have.\r\n        if(newBid+artItem.bidIncrement> highestBid)\r\n        {\r\n            bid.highestBindingBid = highestBid;\r\n        }\r\n        else\r\n        {\r\n            bid.highestBindingBid = newBid+artItem.bidIncrement;\r\n        }\r\n    } else {\r\n        // if msg.sender is already the highest bidder, they must simply be wanting to raise\r\n        // their maximum bid, in which case we shouldn't increase the highestBindingBid.\r\n\r\n        // if the user is NOT highestBidder, and has overbid highestBid completely, we set them\r\n        // as the new highestBidder and recalculate highestBindingBid.\r\n\r\n        if (msg.sender != bid.highestBidder) {\r\n            bid.highestBidder = msg.sender;\r\n        if(newBid+artItem.bidIncrement> highestBid)\r\n        {   if(firsttime==false)\r\n            bid.highestBindingBid = highestBid;\r\n            else\r\n            {bid.highestBindingBid = artItem.minbid + artItem.bidIncrement;\r\n            firsttime=true;\r\n            }\r\n        }\r\n        else\r\n        {\r\n            bid.highestBindingBid = newBid+artItem.bidIncrement;\r\n        }\r\n        }\r\n        highestBid = newBid;\r\n    }\r\n    if(artItem.auctionstarted==false)\r\n    {\r\n        bid.highestBindingBid = msg.value;\r\n    }\r\n    LogBid(msg.sender, id, newBid, bid.highestBidder, highestBid, bid.highestBindingBid);\r\n    artItem.auctionstarted = true;\r\n    return true;\r\n    }\r\n   \r\n    function withdraw(uint256 id) public payable onlyNotOwner(id)\r\n    returns (bool success)\r\n{  \r\n    require(_artItems[id].cancelled==true);\r\n    require(_artItems[id].auctionstarted==true);\r\n    address payable withdrawalAccount;\r\n    uint withdrawalAmount;\r\n    bidding storage bid = bid[id];\r\n   \r\n        if (msg.sender == bid.highestBidder) {\r\n            // the highest bidder should only be allowed to withdraw the difference between their\r\n            // highest bid and the highestBindingBid\r\n            withdrawalAccount = bid.highestBidder;\r\n            withdrawalAmount = fundsByBidder[id][bid.highestBidder];\r\n        }\r\n        else {\r\n            // anyone who participated but did not win the auction should be allowed to withdraw\r\n            // the full amount of their funds\r\n            withdrawalAccount = msg.sender;\r\n            withdrawalAmount = fundsByBidder[id][withdrawalAccount];\r\n        }\r\n\r\n    if (withdrawalAmount == 0) revert();\r\n\r\n    fundsByBidder[id][withdrawalAccount] -= withdrawalAmount;\r\n\r\n    // send the funds\r\n    if (!msg.sender.send(withdrawalAmount)) revert();\r\n\r\n    LogWithdrawal(msg.sender, withdrawalAccount, withdrawalAmount);\r\n\r\n    return true;\r\n}\r\n       \r\n}\r\n\r\n",
  "sourcePath": "C:/Users/USER/Desktop/BLOCKCHAIN/EtherPunk/NFT-Auction-Marketplace/src/contracts/ArtAuction.sol",
  "compiler": {
    "name": "solc",
    "version": "0.6.3+commit.8dda9521.Emscripten.clang"
  },
  "schemaVersion": "3.3.1",
  "updatedAt": "2021-02-24T16:49:42.914Z",
  "networkType": "ethereum",
  "devdoc": {
    "methods": {
      "approve(address,uint256)": {
        "details": "See {IERC721-approve}."
      },
      "balanceOf(address)": {
        "details": "See {IERC721-balanceOf}."
      },
      "baseURI()": {
        "details": "Returns the base URI set via {_setBaseURI}. This will be automatically added as a prefix in {tokenURI} to each token's URI, or to the token ID if no specific URI is set for that token ID."
      },
      "getApproved(uint256)": {
        "details": "See {IERC721-getApproved}."
      },
      "isApprovedForAll(address,address)": {
        "details": "See {IERC721-isApprovedForAll}."
      },
      "name()": {
        "details": "See {IERC721Metadata-name}."
      },
      "ownerOf(uint256)": {
        "details": "See {IERC721-ownerOf}."
      },
      "safeTransferFrom(address,address,uint256)": {
        "details": "See {IERC721-safeTransferFrom}."
      },
      "safeTransferFrom(address,address,uint256,bytes)": {
        "details": "See {IERC721-safeTransferFrom}."
      },
      "setApprovalForAll(address,bool)": {
        "details": "See {IERC721-setApprovalForAll}."
      },
      "supportsInterface(bytes4)": {
        "details": "See {IERC165-supportsInterface}.     * Time complexity O(1), guaranteed to always use less than 30 000 gas."
      },
      "symbol()": {
        "details": "See {IERC721Metadata-symbol}."
      },
      "tokenByIndex(uint256)": {
        "details": "See {IERC721Enumerable-tokenByIndex}."
      },
      "tokenOfOwnerByIndex(address,uint256)": {
        "details": "See {IERC721Enumerable-tokenOfOwnerByIndex}."
      },
      "tokenURI(uint256)": {
        "details": "See {IERC721Metadata-tokenURI}."
      },
      "totalSupply()": {
        "details": "See {IERC721Enumerable-totalSupply}."
      },
      "transferFrom(address,address,uint256)": {
        "details": "See {IERC721-transferFrom}."
      }
    }
  },
  "userdoc": {
    "methods": {}
  }
}